{"abi":[{"anonymous":false,"inputs":[{"indexed":true,"internalType":"bytes32","name":"contractId","type":"bytes32"},{"indexed":true,"internalType":"address","name":"sender","type":"address"},{"indexed":true,"internalType":"address","name":"receiver","type":"address"},{"indexed":false,"internalType":"uint256","name":"amount","type":"uint256"},{"indexed":false,"internalType":"bytes32","name":"hashlock","type":"bytes32"},{"indexed":false,"internalType":"uint256","name":"timelock","type":"uint256"}],"name":"LogHTLCNew","type":"event"},{"anonymous":false,"inputs":[{"indexed":true,"internalType":"bytes32","name":"contractId","type":"bytes32"}],"name":"LogHTLCRefund","type":"event"},{"anonymous":false,"inputs":[{"indexed":true,"internalType":"bytes32","name":"contractId","type":"bytes32"}],"name":"LogHTLCWithdraw","type":"event"},{"inputs":[{"internalType":"bytes32","name":"_contractId","type":"bytes32"}],"name":"getContract","outputs":[{"internalType":"address","name":"sender","type":"address"},{"internalType":"address","name":"receiver","type":"address"},{"internalType":"uint256","name":"amount","type":"uint256"},{"internalType":"bytes32","name":"hashlock","type":"bytes32"},{"internalType":"uint256","name":"timelock","type":"uint256"},{"internalType":"bool","name":"withdrawn","type":"bool"},{"internalType":"bool","name":"refunded","type":"bool"},{"internalType":"bytes32","name":"preimage","type":"bytes32"}],"stateMutability":"view","type":"function"},{"inputs":[{"internalType":"address payable","name":"_receiver","type":"address"},{"internalType":"bytes32","name":"_hashlock","type":"bytes32"},{"internalType":"uint256","name":"_timelock","type":"uint256"}],"name":"newContract","outputs":[{"internalType":"bytes32","name":"contractId","type":"bytes32"}],"stateMutability":"payable","type":"function"},{"inputs":[{"internalType":"bytes32","name":"_contractId","type":"bytes32"}],"name":"refund","outputs":[{"internalType":"bool","name":"","type":"bool"}],"stateMutability":"nonpayable","type":"function"},{"inputs":[{"internalType":"bytes32","name":"_contractId","type":"bytes32"},{"internalType":"bytes32","name":"_preimage","type":"bytes32"}],"name":"withdraw","outputs":[{"internalType":"bool","name":"","type":"bool"}],"stateMutability":"nonpayable","type":"function"}],"devdoc":{"kind":"dev","methods":{"getContract(bytes32)":{"details":"Get contract details.","params":{"_contractId":"HTLC contract id return All parameters in struct LockContract for _contractId HTLC"}},"newContract(address,bytes32,uint256)":{"details":"Sender sets up a new hash time lock contract depositing the ETH and providing the reciever lock terms.","params":{"_hashlock":"A sha-2 sha256 hash hashlock.","_receiver":"Receiver of the ETH.","_timelock":"UNIX epoch seconds time that the lock expires at.                  Refunds can be made after this time."},"returns":{"contractId":"Id of the new HTLC. This is needed for subsequent                    calls."}},"refund(bytes32)":{"details":"Called by the sender if there was no withdraw AND the time lock has expired. This will refund the contract amount.","params":{"_contractId":"Id of HTLC to refund from."},"returns":{"_0":"bool true on success"}},"withdraw(bytes32,bytes32)":{"details":"Called by the receiver once they know the preimage of the hashlock. This will transfer the locked funds to their address.","params":{"_contractId":"Id of the HTLC.","_preimage":"sha256(_preimage) should equal the contract hashlock."},"returns":{"_0":"bool true on success"}}},"title":"Hashed Timelock Contracts (HTLCs) on Ethereum ETH. This contract provides a way to create and keep HTLCs for ETH. See HashedTimelockERC20.sol for a contract that provides the same functions for ERC20 tokens. Protocol:  1) newContract(receiver, hashlock, timelock) - a sender calls this to create      a new HTLC and gets back a 32 byte contract id  2) withdraw(contractId, preimage) - once the receiver knows the preimage of      the hashlock hash they can claim the ETH with this function  3) refund() - after timelock has expired and if the receiver did not      withdraw funds the sender / creator of the HTLC can get their ETH      back with this function.","version":1},"evm":{"assembly":"    /* \"HashedTimelock.sol\":802:7523  contract HashedTimelock {\r... */\n  mstore(0x40, 0x80)\n  callvalue\n  dup1\n  iszero\n  tag_1\n  jumpi\n  0x00\n  dup1\n  revert\ntag_1:\n  pop\n  dataSize(sub_0)\n  dup1\n  dataOffset(sub_0)\n  0x00\n  codecopy\n  0x00\n  return\nstop\n\nsub_0: assembly {\n        /* \"HashedTimelock.sol\":802:7523  contract HashedTimelock {\r... */\n      mstore(0x40, 0x80)\n      jumpi(tag_1, lt(calldatasize, 0x04))\n      shr(0xe0, calldataload(0x00))\n      dup1\n      0x335ef5bd\n      eq\n      tag_2\n      jumpi\n      dup1\n      0x63615149\n      eq\n      tag_3\n      jumpi\n      dup1\n      0x7249fbb6\n      eq\n      tag_4\n      jumpi\n      dup1\n      0xe16c7d98\n      eq\n      tag_5\n      jumpi\n    tag_1:\n      0x00\n      dup1\n      revert\n        /* \"HashedTimelock.sol\":3709:4862  function newContract(address payable _receiver, bytes32 _hashlock, uint _timelock)\r... */\n    tag_2:\n      tag_6\n      0x04\n      dup1\n      calldatasize\n      sub\n      dup2\n      add\n      swap1\n      tag_7\n      swap2\n      swap1\n      tag_8\n      jump\t// in\n    tag_7:\n      tag_9\n      jump\t// in\n    tag_6:\n      mload(0x40)\n      tag_10\n      swap2\n      swap1\n      tag_11\n      jump\t// in\n    tag_10:\n      mload(0x40)\n      dup1\n      swap2\n      sub\n      swap1\n      return\n        /* \"HashedTimelock.sol\":5198:5658  function withdraw(bytes32 _contractId, bytes32 _preimage)\r... */\n    tag_3:\n      callvalue\n      dup1\n      iszero\n      tag_12\n      jumpi\n      0x00\n      dup1\n      revert\n    tag_12:\n      pop\n      tag_13\n      0x04\n      dup1\n      calldatasize\n      sub\n      dup2\n      add\n      swap1\n      tag_14\n      swap2\n      swap1\n      tag_15\n      jump\t// in\n    tag_14:\n      tag_16\n      jump\t// in\n    tag_13:\n      mload(0x40)\n      tag_17\n      swap2\n      swap1\n      tag_18\n      jump\t// in\n    tag_17:\n      mload(0x40)\n      dup1\n      swap2\n      sub\n      swap1\n      return\n        /* \"HashedTimelock.sol\":5919:6269  function refund(bytes32 _contractId)\r... */\n    tag_4:\n      callvalue\n      dup1\n      iszero\n      tag_19\n      jumpi\n      0x00\n      dup1\n      revert\n    tag_19:\n      pop\n      tag_20\n      0x04\n      dup1\n      calldatasize\n      sub\n      dup2\n      add\n      swap1\n      tag_21\n      swap2\n      swap1\n      tag_22\n      jump\t// in\n    tag_21:\n      tag_23\n      jump\t// in\n    tag_20:\n      mload(0x40)\n      tag_24\n      swap2\n      swap1\n      tag_18\n      jump\t// in\n    tag_24:\n      mload(0x40)\n      dup1\n      swap2\n      sub\n      swap1\n      return\n        /* \"HashedTimelock.sol\":6448:7200  function getContract(bytes32 _contractId)\r... */\n    tag_5:\n      callvalue\n      dup1\n      iszero\n      tag_25\n      jumpi\n      0x00\n      dup1\n      revert\n    tag_25:\n      pop\n      tag_26\n      0x04\n      dup1\n      calldatasize\n      sub\n      dup2\n      add\n      swap1\n      tag_27\n      swap2\n      swap1\n      tag_22\n      jump\t// in\n    tag_27:\n      tag_28\n      jump\t// in\n    tag_26:\n      mload(0x40)\n      tag_29\n      swap9\n      swap8\n      swap7\n      swap6\n      swap5\n      swap4\n      swap3\n      swap2\n      swap1\n      tag_30\n      jump\t// in\n    tag_29:\n      mload(0x40)\n      dup1\n      swap2\n      sub\n      swap1\n      return\n        /* \"HashedTimelock.sol\":3709:4862  function newContract(address payable _receiver, bytes32 _hashlock, uint _timelock)\r... */\n    tag_9:\n        /* \"HashedTimelock.sol\":3899:3917  bytes32 contractId */\n      0x00\n        /* \"HashedTimelock.sol\":1532:1533  0 */\n      dup1\n        /* \"HashedTimelock.sol\":1520:1529  msg.value */\n      callvalue\n        /* \"HashedTimelock.sol\":1520:1533  msg.value > 0 */\n      gt\n        /* \"HashedTimelock.sol\":1512:1559  require(msg.value > 0, \"msg.value must be > 0\") */\n      tag_32\n      jumpi\n      mload(0x40)\n      0x08c379a000000000000000000000000000000000000000000000000000000000\n      dup2\n      mstore\n      0x04\n      add\n      tag_33\n      swap1\n      tag_34\n      jump\t// in\n    tag_33:\n      mload(0x40)\n      dup1\n      swap2\n      sub\n      swap1\n      revert\n    tag_32:\n        /* \"HashedTimelock.sol\":3870:3879  _timelock */\n      dup2\n        /* \"HashedTimelock.sol\":1861:1876  block.timestamp */\n      timestamp\n        /* \"HashedTimelock.sol\":1853:1858  _time */\n      dup2\n        /* \"HashedTimelock.sol\":1853:1876  _time > block.timestamp */\n      gt\n        /* \"HashedTimelock.sol\":1845:1916  require(_time > block.timestamp, \"timelock time must be in the future\") */\n      tag_36\n      jumpi\n      mload(0x40)\n      0x08c379a000000000000000000000000000000000000000000000000000000000\n      dup2\n      mstore\n      0x04\n      add\n      tag_37\n      swap1\n      tag_38\n      jump\t// in\n    tag_37:\n      mload(0x40)\n      dup1\n      swap2\n      sub\n      swap1\n      revert\n    tag_36:\n        /* \"HashedTimelock.sol\":3948:4152  sha256(\r... */\n      0x02\n        /* \"HashedTimelock.sol\":4004:4014  msg.sender */\n      caller\n        /* \"HashedTimelock.sol\":4033:4042  _receiver */\n      dup7\n        /* \"HashedTimelock.sol\":4061:4070  msg.value */\n      callvalue\n        /* \"HashedTimelock.sol\":4089:4098  _hashlock */\n      dup8\n        /* \"HashedTimelock.sol\":4117:4126  _timelock */\n      dup8\n        /* \"HashedTimelock.sol\":3969:4141  abi.encodePacked(\r... */\n      add(0x20, mload(0x40))\n      tag_40\n      swap6\n      swap5\n      swap4\n      swap3\n      swap2\n      swap1\n      tag_41\n      jump\t// in\n    tag_40:\n      mload(0x40)\n      0x20\n      dup2\n      dup4\n      sub\n      sub\n      dup2\n      mstore\n      swap1\n      0x40\n      mstore\n        /* \"HashedTimelock.sol\":3948:4152  sha256(\r... */\n      mload(0x40)\n      tag_42\n      swap2\n      swap1\n      tag_43\n      jump\t// in\n    tag_42:\n      0x20\n      mload(0x40)\n      dup1\n      dup4\n      sub\n      dup2\n      dup6\n      gas\n      staticcall\n      iszero\n      dup1\n      iszero\n      tag_45\n      jumpi\n      returndatasize\n      0x00\n      dup1\n      returndatacopy\n      revert(0x00, returndatasize)\n    tag_45:\n      pop\n      pop\n      pop\n      mload(0x40)\n      returndatasize\n      not(0x1f)\n      0x1f\n      dup3\n      add\n      and\n      dup3\n      add\n      dup1\n      0x40\n      mstore\n      pop\n      dup2\n      add\n      swap1\n      tag_46\n      swap2\n      swap1\n      tag_47\n      jump\t// in\n    tag_46:\n        /* \"HashedTimelock.sol\":3935:4152  contractId = sha256(\r... */\n      swap2\n      pop\n        /* \"HashedTimelock.sol\":4349:4373  haveContract(contractId) */\n      tag_48\n        /* \"HashedTimelock.sol\":4362:4372  contractId */\n      dup3\n        /* \"HashedTimelock.sol\":4349:4361  haveContract */\n      tag_49\n        /* \"HashedTimelock.sol\":4349:4373  haveContract(contractId) */\n      jump\t// in\n    tag_48:\n        /* \"HashedTimelock.sol\":4345:4421  if (haveContract(contractId))\r... */\n      iszero\n      tag_50\n      jumpi\n        /* \"HashedTimelock.sol\":4388:4421  revert(\"Contract already exists\") */\n      mload(0x40)\n      0x08c379a000000000000000000000000000000000000000000000000000000000\n      dup2\n      mstore\n      0x04\n      add\n      tag_51\n      swap1\n      tag_52\n      jump\t// in\n    tag_51:\n      mload(0x40)\n      dup1\n      swap2\n      sub\n      swap1\n      revert\n        /* \"HashedTimelock.sol\":4345:4421  if (haveContract(contractId))\r... */\n    tag_50:\n        /* \"HashedTimelock.sol\":4458:4669  LockContract(\r... */\n      mload(0x40)\n      dup1\n      0x0100\n      add\n      0x40\n      mstore\n      dup1\n        /* \"HashedTimelock.sol\":4493:4503  msg.sender */\n      caller\n        /* \"HashedTimelock.sol\":4458:4669  LockContract(\r... */\n      0xffffffffffffffffffffffffffffffffffffffff\n      and\n      dup2\n      mstore\n      0x20\n      add\n        /* \"HashedTimelock.sol\":4519:4528  _receiver */\n      dup7\n        /* \"HashedTimelock.sol\":4458:4669  LockContract(\r... */\n      0xffffffffffffffffffffffffffffffffffffffff\n      and\n      dup2\n      mstore\n      0x20\n      add\n        /* \"HashedTimelock.sol\":4543:4552  msg.value */\n      callvalue\n        /* \"HashedTimelock.sol\":4458:4669  LockContract(\r... */\n      dup2\n      mstore\n      0x20\n      add\n        /* \"HashedTimelock.sol\":4567:4576  _hashlock */\n      dup6\n        /* \"HashedTimelock.sol\":4458:4669  LockContract(\r... */\n      dup2\n      mstore\n      0x20\n      add\n        /* \"HashedTimelock.sol\":4591:4600  _timelock */\n      dup5\n        /* \"HashedTimelock.sol\":4458:4669  LockContract(\r... */\n      dup2\n      mstore\n      0x20\n      add\n        /* \"HashedTimelock.sol\":4615:4620  false */\n      0x00\n        /* \"HashedTimelock.sol\":4458:4669  LockContract(\r... */\n      iszero\n      iszero\n      dup2\n      mstore\n      0x20\n      add\n        /* \"HashedTimelock.sol\":4635:4640  false */\n      0x00\n        /* \"HashedTimelock.sol\":4458:4669  LockContract(\r... */\n      iszero\n      iszero\n      dup2\n      mstore\n      0x20\n      add\n        /* \"HashedTimelock.sol\":4655:4658  0x0 */\n      0x00\n        /* \"HashedTimelock.sol\":4458:4669  LockContract(\r... */\n      dup1\n      shl\n      dup2\n      mstore\n      pop\n        /* \"HashedTimelock.sol\":4434:4443  contracts */\n      0x00\n        /* \"HashedTimelock.sol\":4434:4455  contracts[contractId] */\n      dup1\n        /* \"HashedTimelock.sol\":4444:4454  contractId */\n      dup5\n        /* \"HashedTimelock.sol\":4434:4455  contracts[contractId] */\n      dup2\n      mstore\n      0x20\n      add\n      swap1\n      dup2\n      mstore\n      0x20\n      add\n      0x00\n      keccak256\n        /* \"HashedTimelock.sol\":4434:4669  contracts[contractId] = LockContract(\r... */\n      0x00\n      dup3\n      add\n      mload\n      dup2\n      0x00\n      add\n      exp(0x0100, 0x00)\n      dup2\n      sload\n      dup2\n      0xffffffffffffffffffffffffffffffffffffffff\n      mul\n      not\n      and\n      swap1\n      dup4\n      0xffffffffffffffffffffffffffffffffffffffff\n      and\n      mul\n      or\n      swap1\n      sstore\n      pop\n      0x20\n      dup3\n      add\n      mload\n      dup2\n      0x01\n      add\n      exp(0x0100, 0x00)\n      dup2\n      sload\n      dup2\n      0xffffffffffffffffffffffffffffffffffffffff\n      mul\n      not\n      and\n      swap1\n      dup4\n      0xffffffffffffffffffffffffffffffffffffffff\n      and\n      mul\n      or\n      swap1\n      sstore\n      pop\n      0x40\n      dup3\n      add\n      mload\n      dup2\n      0x02\n      add\n      sstore\n      0x60\n      dup3\n      add\n      mload\n      dup2\n      0x03\n      add\n      sstore\n      0x80\n      dup3\n      add\n      mload\n      dup2\n      0x04\n      add\n      sstore\n      0xa0\n      dup3\n      add\n      mload\n      dup2\n      0x05\n      add\n      exp(0x0100, 0x00)\n      dup2\n      sload\n      dup2\n      0xff\n      mul\n      not\n      and\n      swap1\n      dup4\n      iszero\n      iszero\n      mul\n      or\n      swap1\n      sstore\n      pop\n      0xc0\n      dup3\n      add\n      mload\n      dup2\n      0x05\n      add\n      exp(0x0100, 0x01)\n      dup2\n      sload\n      dup2\n      0xff\n      mul\n      not\n      and\n      swap1\n      dup4\n      iszero\n      iszero\n      mul\n      or\n      swap1\n      sstore\n      pop\n      0xe0\n      dup3\n      add\n      mload\n      dup2\n      0x06\n      add\n      sstore\n      swap1\n      pop\n      pop\n        /* \"HashedTimelock.sol\":4762:4771  _receiver */\n      dup5\n        /* \"HashedTimelock.sol\":4687:4854  LogHTLCNew(\r... */\n      0xffffffffffffffffffffffffffffffffffffffff\n      and\n        /* \"HashedTimelock.sol\":4737:4747  msg.sender */\n      caller\n        /* \"HashedTimelock.sol\":4687:4854  LogHTLCNew(\r... */\n      0xffffffffffffffffffffffffffffffffffffffff\n      and\n        /* \"HashedTimelock.sol\":4712:4722  contractId */\n      dup4\n        /* \"HashedTimelock.sol\":4687:4854  LogHTLCNew(\r... */\n      0x329a8316ed9c3b2299597538371c2944c5026574e803b1ec31d6113e1cd67bde\n        /* \"HashedTimelock.sol\":4786:4795  msg.value */\n      callvalue\n        /* \"HashedTimelock.sol\":4810:4819  _hashlock */\n      dup9\n        /* \"HashedTimelock.sol\":4834:4843  _timelock */\n      dup9\n        /* \"HashedTimelock.sol\":4687:4854  LogHTLCNew(\r... */\n      mload(0x40)\n      tag_53\n      swap4\n      swap3\n      swap2\n      swap1\n      tag_54\n      jump\t// in\n    tag_53:\n      mload(0x40)\n      dup1\n      swap2\n      sub\n      swap1\n      log4\n        /* \"HashedTimelock.sol\":1570:1571  _ */\n      pop\n        /* \"HashedTimelock.sol\":3709:4862  function newContract(address payable _receiver, bytes32 _hashlock, uint _timelock)\r... */\n      swap4\n      swap3\n      pop\n      pop\n      pop\n      jump\t// out\n        /* \"HashedTimelock.sol\":5198:5658  function withdraw(bytes32 _contractId, bytes32 _preimage)\r... */\n    tag_16:\n        /* \"HashedTimelock.sol\":5413:5417  bool */\n      0x00\n        /* \"HashedTimelock.sol\":5298:5309  _contractId */\n      dup3\n        /* \"HashedTimelock.sol\":2006:2031  haveContract(_contractId) */\n      tag_56\n        /* \"HashedTimelock.sol\":2019:2030  _contractId */\n      dup2\n        /* \"HashedTimelock.sol\":2006:2018  haveContract */\n      tag_49\n        /* \"HashedTimelock.sol\":2006:2031  haveContract(_contractId) */\n      jump\t// in\n    tag_56:\n        /* \"HashedTimelock.sol\":1998:2061  require(haveContract(_contractId), \"contractId does not exist\") */\n      tag_57\n      jumpi\n      mload(0x40)\n      0x08c379a000000000000000000000000000000000000000000000000000000000\n      dup2\n      mstore\n      0x04\n      add\n      tag_58\n      swap1\n      tag_59\n      jump\t// in\n    tag_58:\n      mload(0x40)\n      dup1\n      swap2\n      sub\n      swap1\n      revert\n    tag_57:\n        /* \"HashedTimelock.sol\":5336:5347  _contractId */\n      dup4\n        /* \"HashedTimelock.sol\":5349:5358  _preimage */\n      dup4\n        /* \"HashedTimelock.sol\":2213:2241  sha256(abi.encodePacked(_x)) */\n      0x02\n        /* \"HashedTimelock.sol\":2237:2239  _x */\n      dup2\n        /* \"HashedTimelock.sol\":2220:2240  abi.encodePacked(_x) */\n      add(0x20, mload(0x40))\n      tag_61\n      swap2\n      swap1\n      tag_62\n      jump\t// in\n    tag_61:\n      mload(0x40)\n      0x20\n      dup2\n      dup4\n      sub\n      sub\n      dup2\n      mstore\n      swap1\n      0x40\n      mstore\n        /* \"HashedTimelock.sol\":2213:2241  sha256(abi.encodePacked(_x)) */\n      mload(0x40)\n      tag_63\n      swap2\n      swap1\n      tag_43\n      jump\t// in\n    tag_63:\n      0x20\n      mload(0x40)\n      dup1\n      dup4\n      sub\n      dup2\n      dup6\n      gas\n      staticcall\n      iszero\n      dup1\n      iszero\n      tag_65\n      jumpi\n      returndatasize\n      0x00\n      dup1\n      returndatacopy\n      revert(0x00, returndatasize)\n    tag_65:\n      pop\n      pop\n      pop\n      mload(0x40)\n      returndatasize\n      not(0x1f)\n      0x1f\n      dup3\n      add\n      and\n      dup3\n      add\n      dup1\n      0x40\n      mstore\n      pop\n      dup2\n      add\n      swap1\n      tag_66\n      swap2\n      swap1\n      tag_47\n      jump\t// in\n    tag_66:\n        /* \"HashedTimelock.sol\":2178:2187  contracts */\n      0x00\n        /* \"HashedTimelock.sol\":2178:2200  contracts[_contractId] */\n      dup1\n        /* \"HashedTimelock.sol\":2188:2199  _contractId */\n      dup5\n        /* \"HashedTimelock.sol\":2178:2200  contracts[_contractId] */\n      dup2\n      mstore\n      0x20\n      add\n      swap1\n      dup2\n      mstore\n      0x20\n      add\n      0x00\n      keccak256\n        /* \"HashedTimelock.sol\":2178:2209  contracts[_contractId].hashlock */\n      0x03\n      add\n      sload\n        /* \"HashedTimelock.sol\":2178:2241  contracts[_contractId].hashlock == sha256(abi.encodePacked(_x)) */\n      eq\n        /* \"HashedTimelock.sol\":2156:2297  require(\r... */\n      tag_67\n      jumpi\n      mload(0x40)\n      0x08c379a000000000000000000000000000000000000000000000000000000000\n      dup2\n      mstore\n      0x04\n      add\n      tag_68\n      swap1\n      tag_69\n      jump\t// in\n    tag_68:\n      mload(0x40)\n      dup1\n      swap2\n      sub\n      swap1\n      revert\n    tag_67:\n        /* \"HashedTimelock.sol\":5382:5393  _contractId */\n      dup6\n        /* \"HashedTimelock.sol\":2420:2430  msg.sender */\n      caller\n        /* \"HashedTimelock.sol\":2385:2430  contracts[_contractId].receiver == msg.sender */\n      0xffffffffffffffffffffffffffffffffffffffff\n      and\n        /* \"HashedTimelock.sol\":2385:2394  contracts */\n      0x00\n        /* \"HashedTimelock.sol\":2385:2407  contracts[_contractId] */\n      dup1\n        /* \"HashedTimelock.sol\":2395:2406  _contractId */\n      dup4\n        /* \"HashedTimelock.sol\":2385:2407  contracts[_contractId] */\n      dup2\n      mstore\n      0x20\n      add\n      swap1\n      dup2\n      mstore\n      0x20\n      add\n      0x00\n      keccak256\n        /* \"HashedTimelock.sol\":2385:2416  contracts[_contractId].receiver */\n      0x01\n      add\n      0x00\n      swap1\n      sload\n      swap1\n      0x0100\n      exp\n      swap1\n      div\n      0xffffffffffffffffffffffffffffffffffffffff\n      and\n        /* \"HashedTimelock.sol\":2385:2430  contracts[_contractId].receiver == msg.sender */\n      0xffffffffffffffffffffffffffffffffffffffff\n      and\n      eq\n        /* \"HashedTimelock.sol\":2377:2461  require(contracts[_contractId].receiver == msg.sender, \"withdrawable: not receiver\") */\n      tag_71\n      jumpi\n      mload(0x40)\n      0x08c379a000000000000000000000000000000000000000000000000000000000\n      dup2\n      mstore\n      0x04\n      add\n      tag_72\n      swap1\n      tag_73\n      jump\t// in\n    tag_72:\n      mload(0x40)\n      dup1\n      swap2\n      sub\n      swap1\n      revert\n    tag_71:\n        /* \"HashedTimelock.sol\":2516:2521  false */\n      0x00\n        /* \"HashedTimelock.sol\":2480:2521  contracts[_contractId].withdrawn == false */\n      iszero\n      iszero\n        /* \"HashedTimelock.sol\":2480:2489  contracts */\n      0x00\n        /* \"HashedTimelock.sol\":2480:2502  contracts[_contractId] */\n      dup1\n        /* \"HashedTimelock.sol\":2490:2501  _contractId */\n      dup4\n        /* \"HashedTimelock.sol\":2480:2502  contracts[_contractId] */\n      dup2\n      mstore\n      0x20\n      add\n      swap1\n      dup2\n      mstore\n      0x20\n      add\n      0x00\n      keccak256\n        /* \"HashedTimelock.sol\":2480:2512  contracts[_contractId].withdrawn */\n      0x05\n      add\n      0x00\n      swap1\n      sload\n      swap1\n      0x0100\n      exp\n      swap1\n      div\n      0xff\n      and\n        /* \"HashedTimelock.sol\":2480:2521  contracts[_contractId].withdrawn == false */\n      iszero\n      iszero\n      eq\n        /* \"HashedTimelock.sol\":2472:2557  require(contracts[_contractId].withdrawn == false, \"withdrawable: already withdrawn\") */\n      tag_74\n      jumpi\n      mload(0x40)\n      0x08c379a000000000000000000000000000000000000000000000000000000000\n      dup2\n      mstore\n      0x04\n      add\n      tag_75\n      swap1\n      tag_76\n      jump\t// in\n    tag_75:\n      mload(0x40)\n      dup1\n      swap2\n      sub\n      swap1\n      revert\n    tag_74:\n        /* \"HashedTimelock.sol\":2610:2625  block.timestamp */\n      timestamp\n        /* \"HashedTimelock.sol\":2576:2585  contracts */\n      0x00\n        /* \"HashedTimelock.sol\":2576:2598  contracts[_contractId] */\n      dup1\n        /* \"HashedTimelock.sol\":2586:2597  _contractId */\n      dup4\n        /* \"HashedTimelock.sol\":2576:2598  contracts[_contractId] */\n      dup2\n      mstore\n      0x20\n      add\n      swap1\n      dup2\n      mstore\n      0x20\n      add\n      0x00\n      keccak256\n        /* \"HashedTimelock.sol\":2576:2607  contracts[_contractId].timelock */\n      0x04\n      add\n      sload\n        /* \"HashedTimelock.sol\":2576:2625  contracts[_contractId].timelock > block.timestamp */\n      gt\n        /* \"HashedTimelock.sol\":2568:2679  require(contracts[_contractId].timelock > block.timestamp, \"withdrawable: timelock time must be in the future\") */\n      tag_77\n      jumpi\n      mload(0x40)\n      0x08c379a000000000000000000000000000000000000000000000000000000000\n      dup2\n      mstore\n      0x04\n      add\n      tag_78\n      swap1\n      tag_79\n      jump\t// in\n    tag_78:\n      mload(0x40)\n      dup1\n      swap2\n      sub\n      swap1\n      revert\n    tag_77:\n        /* \"HashedTimelock.sol\":5435:5457  LockContract storage c */\n      0x00\n        /* \"HashedTimelock.sol\":5460:5469  contracts */\n      dup1\n        /* \"HashedTimelock.sol\":5460:5482  contracts[_contractId] */\n      0x00\n        /* \"HashedTimelock.sol\":5470:5481  _contractId */\n      dup10\n        /* \"HashedTimelock.sol\":5460:5482  contracts[_contractId] */\n      dup2\n      mstore\n      0x20\n      add\n      swap1\n      dup2\n      mstore\n      0x20\n      add\n      0x00\n      keccak256\n        /* \"HashedTimelock.sol\":5435:5482  LockContract storage c = contracts[_contractId] */\n      swap1\n      pop\n        /* \"HashedTimelock.sol\":5506:5515  _preimage */\n      dup7\n        /* \"HashedTimelock.sol\":5493:5494  c */\n      dup2\n        /* \"HashedTimelock.sol\":5493:5503  c.preimage */\n      0x06\n      add\n        /* \"HashedTimelock.sol\":5493:5515  c.preimage = _preimage */\n      dup2\n      swap1\n      sstore\n      pop\n        /* \"HashedTimelock.sol\":5540:5544  true */\n      0x01\n        /* \"HashedTimelock.sol\":5526:5527  c */\n      dup2\n        /* \"HashedTimelock.sol\":5526:5537  c.withdrawn */\n      0x05\n      add\n      0x00\n        /* \"HashedTimelock.sol\":5526:5544  c.withdrawn = true */\n      0x0100\n      exp\n      dup2\n      sload\n      dup2\n      0xff\n      mul\n      not\n      and\n      swap1\n      dup4\n      iszero\n      iszero\n      mul\n      or\n      swap1\n      sstore\n      pop\n        /* \"HashedTimelock.sol\":5555:5556  c */\n      dup1\n        /* \"HashedTimelock.sol\":5555:5565  c.receiver */\n      0x01\n      add\n      0x00\n      swap1\n      sload\n      swap1\n      0x0100\n      exp\n      swap1\n      div\n      0xffffffffffffffffffffffffffffffffffffffff\n      and\n        /* \"HashedTimelock.sol\":5555:5574  c.receiver.transfer */\n      0xffffffffffffffffffffffffffffffffffffffff\n      and\n        /* \"HashedTimelock.sol\":5555:5584  c.receiver.transfer(c.amount) */\n      0x08fc\n        /* \"HashedTimelock.sol\":5575:5576  c */\n      dup3\n        /* \"HashedTimelock.sol\":5575:5583  c.amount */\n      0x02\n      add\n      sload\n        /* \"HashedTimelock.sol\":5555:5584  c.receiver.transfer(c.amount) */\n      swap1\n      dup2\n      iszero\n      mul\n      swap1\n      mload(0x40)\n      0x00\n      mload(0x40)\n      dup1\n      dup4\n      sub\n      dup2\n      dup6\n      dup9\n      dup9\n      call\n      swap4\n      pop\n      pop\n      pop\n      pop\n      iszero\n      dup1\n      iszero\n      tag_82\n      jumpi\n      returndatasize\n      0x00\n      dup1\n      returndatacopy\n      revert(0x00, returndatasize)\n    tag_82:\n      pop\n        /* \"HashedTimelock.sol\":5616:5627  _contractId */\n      dup8\n        /* \"HashedTimelock.sol\":5600:5628  LogHTLCWithdraw(_contractId) */\n      0xd6fd4c8e45bf0c70693141c7ce46451b6a6a28ac8386fca2ba914044e0e23916\n      mload(0x40)\n      mload(0x40)\n      dup1\n      swap2\n      sub\n      swap1\n      log2\n        /* \"HashedTimelock.sol\":5646:5650  true */\n      0x01\n        /* \"HashedTimelock.sol\":5639:5650  return true */\n      swap6\n      pop\n      pop\n        /* \"HashedTimelock.sol\":2308:2309  _ */\n      pop\n        /* \"HashedTimelock.sol\":2072:2073  _ */\n      pop\n      pop\n        /* \"HashedTimelock.sol\":5198:5658  function withdraw(bytes32 _contractId, bytes32 _preimage)\r... */\n      pop\n      swap3\n      swap2\n      pop\n      pop\n      jump\t// out\n        /* \"HashedTimelock.sol\":5919:6269  function refund(bytes32 _contractId)\r... */\n    tag_23:\n        /* \"HashedTimelock.sol\":6062:6066  bool */\n      0x00\n        /* \"HashedTimelock.sol\":5998:6009  _contractId */\n      dup2\n        /* \"HashedTimelock.sol\":2006:2031  haveContract(_contractId) */\n      tag_84\n        /* \"HashedTimelock.sol\":2019:2030  _contractId */\n      dup2\n        /* \"HashedTimelock.sol\":2006:2018  haveContract */\n      tag_49\n        /* \"HashedTimelock.sol\":2006:2031  haveContract(_contractId) */\n      jump\t// in\n    tag_84:\n        /* \"HashedTimelock.sol\":1998:2061  require(haveContract(_contractId), \"contractId does not exist\") */\n      tag_85\n      jumpi\n      mload(0x40)\n      0x08c379a000000000000000000000000000000000000000000000000000000000\n      dup2\n      mstore\n      0x04\n      add\n      tag_86\n      swap1\n      tag_59\n      jump\t// in\n    tag_86:\n      mload(0x40)\n      dup1\n      swap2\n      sub\n      swap1\n      revert\n    tag_85:\n        /* \"HashedTimelock.sol\":6031:6042  _contractId */\n      dup3\n        /* \"HashedTimelock.sol\":2798:2808  msg.sender */\n      caller\n        /* \"HashedTimelock.sol\":2765:2808  contracts[_contractId].sender == msg.sender */\n      0xffffffffffffffffffffffffffffffffffffffff\n      and\n        /* \"HashedTimelock.sol\":2765:2774  contracts */\n      0x00\n        /* \"HashedTimelock.sol\":2765:2787  contracts[_contractId] */\n      dup1\n        /* \"HashedTimelock.sol\":2775:2786  _contractId */\n      dup4\n        /* \"HashedTimelock.sol\":2765:2787  contracts[_contractId] */\n      dup2\n      mstore\n      0x20\n      add\n      swap1\n      dup2\n      mstore\n      0x20\n      add\n      0x00\n      keccak256\n        /* \"HashedTimelock.sol\":2765:2794  contracts[_contractId].sender */\n      0x00\n      add\n      0x00\n      swap1\n      sload\n      swap1\n      0x0100\n      exp\n      swap1\n      div\n      0xffffffffffffffffffffffffffffffffffffffff\n      and\n        /* \"HashedTimelock.sol\":2765:2808  contracts[_contractId].sender == msg.sender */\n      0xffffffffffffffffffffffffffffffffffffffff\n      and\n      eq\n        /* \"HashedTimelock.sol\":2757:2835  require(contracts[_contractId].sender == msg.sender, \"refundable: not sender\") */\n      tag_88\n      jumpi\n      mload(0x40)\n      0x08c379a000000000000000000000000000000000000000000000000000000000\n      dup2\n      mstore\n      0x04\n      add\n      tag_89\n      swap1\n      tag_90\n      jump\t// in\n    tag_89:\n      mload(0x40)\n      dup1\n      swap2\n      sub\n      swap1\n      revert\n    tag_88:\n        /* \"HashedTimelock.sol\":2889:2894  false */\n      0x00\n        /* \"HashedTimelock.sol\":2854:2894  contracts[_contractId].refunded == false */\n      iszero\n      iszero\n        /* \"HashedTimelock.sol\":2854:2863  contracts */\n      0x00\n        /* \"HashedTimelock.sol\":2854:2876  contracts[_contractId] */\n      dup1\n        /* \"HashedTimelock.sol\":2864:2875  _contractId */\n      dup4\n        /* \"HashedTimelock.sol\":2854:2876  contracts[_contractId] */\n      dup2\n      mstore\n      0x20\n      add\n      swap1\n      dup2\n      mstore\n      0x20\n      add\n      0x00\n      keccak256\n        /* \"HashedTimelock.sol\":2854:2885  contracts[_contractId].refunded */\n      0x05\n      add\n      0x01\n      swap1\n      sload\n      swap1\n      0x0100\n      exp\n      swap1\n      div\n      0xff\n      and\n        /* \"HashedTimelock.sol\":2854:2894  contracts[_contractId].refunded == false */\n      iszero\n      iszero\n      eq\n        /* \"HashedTimelock.sol\":2846:2927  require(contracts[_contractId].refunded == false, \"refundable: already refunded\") */\n      tag_91\n      jumpi\n      mload(0x40)\n      0x08c379a000000000000000000000000000000000000000000000000000000000\n      dup2\n      mstore\n      0x04\n      add\n      tag_92\n      swap1\n      tag_93\n      jump\t// in\n    tag_92:\n      mload(0x40)\n      dup1\n      swap2\n      sub\n      swap1\n      revert\n    tag_91:\n        /* \"HashedTimelock.sol\":2982:2987  false */\n      0x00\n        /* \"HashedTimelock.sol\":2946:2987  contracts[_contractId].withdrawn == false */\n      iszero\n      iszero\n        /* \"HashedTimelock.sol\":2946:2955  contracts */\n      0x00\n        /* \"HashedTimelock.sol\":2946:2968  contracts[_contractId] */\n      dup1\n        /* \"HashedTimelock.sol\":2956:2967  _contractId */\n      dup4\n        /* \"HashedTimelock.sol\":2946:2968  contracts[_contractId] */\n      dup2\n      mstore\n      0x20\n      add\n      swap1\n      dup2\n      mstore\n      0x20\n      add\n      0x00\n      keccak256\n        /* \"HashedTimelock.sol\":2946:2978  contracts[_contractId].withdrawn */\n      0x05\n      add\n      0x00\n      swap1\n      sload\n      swap1\n      0x0100\n      exp\n      swap1\n      div\n      0xff\n      and\n        /* \"HashedTimelock.sol\":2946:2987  contracts[_contractId].withdrawn == false */\n      iszero\n      iszero\n      eq\n        /* \"HashedTimelock.sol\":2938:3021  require(contracts[_contractId].withdrawn == false, \"refundable: already withdrawn\") */\n      tag_94\n      jumpi\n      mload(0x40)\n      0x08c379a000000000000000000000000000000000000000000000000000000000\n      dup2\n      mstore\n      0x04\n      add\n      tag_95\n      swap1\n      tag_96\n      jump\t// in\n    tag_95:\n      mload(0x40)\n      dup1\n      swap2\n      sub\n      swap1\n      revert\n    tag_94:\n        /* \"HashedTimelock.sol\":3075:3090  block.timestamp */\n      timestamp\n        /* \"HashedTimelock.sol\":3040:3049  contracts */\n      0x00\n        /* \"HashedTimelock.sol\":3040:3062  contracts[_contractId] */\n      dup1\n        /* \"HashedTimelock.sol\":3050:3061  _contractId */\n      dup4\n        /* \"HashedTimelock.sol\":3040:3062  contracts[_contractId] */\n      dup2\n      mstore\n      0x20\n      add\n      swap1\n      dup2\n      mstore\n      0x20\n      add\n      0x00\n      keccak256\n        /* \"HashedTimelock.sol\":3040:3071  contracts[_contractId].timelock */\n      0x04\n      add\n      sload\n        /* \"HashedTimelock.sol\":3040:3090  contracts[_contractId].timelock <= block.timestamp */\n      gt\n      iszero\n        /* \"HashedTimelock.sol\":3032:3130  require(contracts[_contractId].timelock <= block.timestamp, \"refundable: timelock not yet passed\") */\n      tag_97\n      jumpi\n      mload(0x40)\n      0x08c379a000000000000000000000000000000000000000000000000000000000\n      dup2\n      mstore\n      0x04\n      add\n      tag_98\n      swap1\n      tag_99\n      jump\t// in\n    tag_98:\n      mload(0x40)\n      dup1\n      swap2\n      sub\n      swap1\n      revert\n    tag_97:\n        /* \"HashedTimelock.sol\":6084:6106  LockContract storage c */\n      0x00\n        /* \"HashedTimelock.sol\":6109:6118  contracts */\n      dup1\n        /* \"HashedTimelock.sol\":6109:6131  contracts[_contractId] */\n      0x00\n        /* \"HashedTimelock.sol\":6119:6130  _contractId */\n      dup7\n        /* \"HashedTimelock.sol\":6109:6131  contracts[_contractId] */\n      dup2\n      mstore\n      0x20\n      add\n      swap1\n      dup2\n      mstore\n      0x20\n      add\n      0x00\n      keccak256\n        /* \"HashedTimelock.sol\":6084:6131  LockContract storage c = contracts[_contractId] */\n      swap1\n      pop\n        /* \"HashedTimelock.sol\":6155:6159  true */\n      0x01\n        /* \"HashedTimelock.sol\":6142:6143  c */\n      dup2\n        /* \"HashedTimelock.sol\":6142:6152  c.refunded */\n      0x05\n      add\n      0x01\n        /* \"HashedTimelock.sol\":6142:6159  c.refunded = true */\n      0x0100\n      exp\n      dup2\n      sload\n      dup2\n      0xff\n      mul\n      not\n      and\n      swap1\n      dup4\n      iszero\n      iszero\n      mul\n      or\n      swap1\n      sstore\n      pop\n        /* \"HashedTimelock.sol\":6170:6171  c */\n      dup1\n        /* \"HashedTimelock.sol\":6170:6178  c.sender */\n      0x00\n      add\n      0x00\n      swap1\n      sload\n      swap1\n      0x0100\n      exp\n      swap1\n      div\n      0xffffffffffffffffffffffffffffffffffffffff\n      and\n        /* \"HashedTimelock.sol\":6170:6187  c.sender.transfer */\n      0xffffffffffffffffffffffffffffffffffffffff\n      and\n        /* \"HashedTimelock.sol\":6170:6197  c.sender.transfer(c.amount) */\n      0x08fc\n        /* \"HashedTimelock.sol\":6188:6189  c */\n      dup3\n        /* \"HashedTimelock.sol\":6188:6196  c.amount */\n      0x02\n      add\n      sload\n        /* \"HashedTimelock.sol\":6170:6197  c.sender.transfer(c.amount) */\n      swap1\n      dup2\n      iszero\n      mul\n      swap1\n      mload(0x40)\n      0x00\n      mload(0x40)\n      dup1\n      dup4\n      sub\n      dup2\n      dup6\n      dup9\n      dup9\n      call\n      swap4\n      pop\n      pop\n      pop\n      pop\n      iszero\n      dup1\n      iszero\n      tag_102\n      jumpi\n      returndatasize\n      0x00\n      dup1\n      returndatacopy\n      revert(0x00, returndatasize)\n    tag_102:\n      pop\n        /* \"HashedTimelock.sol\":6227:6238  _contractId */\n      dup5\n        /* \"HashedTimelock.sol\":6213:6239  LogHTLCRefund(_contractId) */\n      0x989b3a845197c9aec15f8982bbb30b5da714050e662a7a287bb1a94c81e2e70e\n      mload(0x40)\n      mload(0x40)\n      dup1\n      swap2\n      sub\n      swap1\n      log2\n        /* \"HashedTimelock.sol\":6257:6261  true */\n      0x01\n        /* \"HashedTimelock.sol\":6250:6261  return true */\n      swap4\n      pop\n      pop\n        /* \"HashedTimelock.sol\":2072:2073  _ */\n      pop\n        /* \"HashedTimelock.sol\":5919:6269  function refund(bytes32 _contractId)\r... */\n      pop\n      swap2\n      swap1\n      pop\n      jump\t// out\n        /* \"HashedTimelock.sol\":6448:7200  function getContract(bytes32 _contractId)\r... */\n    tag_28:\n        /* \"HashedTimelock.sol\":6552:6566  address sender */\n      0x00\n        /* \"HashedTimelock.sol\":6581:6597  address receiver */\n      dup1\n        /* \"HashedTimelock.sol\":6612:6623  uint amount */\n      0x00\n        /* \"HashedTimelock.sol\":6638:6654  bytes32 hashlock */\n      dup1\n        /* \"HashedTimelock.sol\":6669:6682  uint timelock */\n      0x00\n        /* \"HashedTimelock.sol\":6697:6711  bool withdrawn */\n      dup1\n        /* \"HashedTimelock.sol\":6726:6739  bool refunded */\n      0x00\n        /* \"HashedTimelock.sol\":6754:6770  bytes32 preimage */\n      dup1\n        /* \"HashedTimelock.sol\":6831:6836  false */\n      0x00\n        /* \"HashedTimelock.sol\":6802:6836  haveContract(_contractId) == false */\n      iszero\n      iszero\n        /* \"HashedTimelock.sol\":6802:6827  haveContract(_contractId) */\n      tag_104\n        /* \"HashedTimelock.sol\":6815:6826  _contractId */\n      dup11\n        /* \"HashedTimelock.sol\":6802:6814  haveContract */\n      tag_49\n        /* \"HashedTimelock.sol\":6802:6827  haveContract(_contractId) */\n      jump\t// in\n    tag_104:\n        /* \"HashedTimelock.sol\":6802:6836  haveContract(_contractId) == false */\n      iszero\n      iszero\n      eq\n        /* \"HashedTimelock.sol\":6798:6908  if (haveContract(_contractId) == false)\r... */\n      iszero\n      tag_105\n      jumpi\n        /* \"HashedTimelock.sol\":6867:6868  0 */\n      0x00\n        /* \"HashedTimelock.sol\":6879:6880  0 */\n      dup1\n        /* \"HashedTimelock.sol\":6883:6884  0 */\n      0x00\n        /* \"HashedTimelock.sol\":6886:6887  0 */\n      dup1\n        /* \"HashedTimelock.sol\":6889:6890  0 */\n      0x00\n        /* \"HashedTimelock.sol\":6892:6897  false */\n      dup1\n        /* \"HashedTimelock.sol\":6899:6904  false */\n      0x00\n        /* \"HashedTimelock.sol\":6906:6907  0 */\n      dup1\n        /* \"HashedTimelock.sol\":6851:6908  return (address(0), address(0), 0, 0, 0, false, false, 0) */\n      dup5\n      0x00\n      shl\n      swap5\n      pop\n      dup1\n      0x00\n      shl\n      swap1\n      pop\n      swap8\n      pop\n      swap8\n      pop\n      swap8\n      pop\n      swap8\n      pop\n      swap8\n      pop\n      swap8\n      pop\n      swap8\n      pop\n      swap8\n      pop\n      jump(tag_103)\n        /* \"HashedTimelock.sol\":6798:6908  if (haveContract(_contractId) == false)\r... */\n    tag_105:\n        /* \"HashedTimelock.sol\":6919:6941  LockContract storage c */\n      0x00\n        /* \"HashedTimelock.sol\":6944:6953  contracts */\n      dup1\n        /* \"HashedTimelock.sol\":6944:6966  contracts[_contractId] */\n      0x00\n        /* \"HashedTimelock.sol\":6954:6965  _contractId */\n      dup12\n        /* \"HashedTimelock.sol\":6944:6966  contracts[_contractId] */\n      dup2\n      mstore\n      0x20\n      add\n      swap1\n      dup2\n      mstore\n      0x20\n      add\n      0x00\n      keccak256\n        /* \"HashedTimelock.sol\":6919:6966  LockContract storage c = contracts[_contractId] */\n      swap1\n      pop\n        /* \"HashedTimelock.sol\":6999:7000  c */\n      dup1\n        /* \"HashedTimelock.sol\":6999:7007  c.sender */\n      0x00\n      add\n      0x00\n      swap1\n      sload\n      swap1\n      0x0100\n      exp\n      swap1\n      div\n      0xffffffffffffffffffffffffffffffffffffffff\n      and\n        /* \"HashedTimelock.sol\":7022:7023  c */\n      dup2\n        /* \"HashedTimelock.sol\":7022:7032  c.receiver */\n      0x01\n      add\n      0x00\n      swap1\n      sload\n      swap1\n      0x0100\n      exp\n      swap1\n      div\n      0xffffffffffffffffffffffffffffffffffffffff\n      and\n        /* \"HashedTimelock.sol\":7047:7048  c */\n      dup3\n        /* \"HashedTimelock.sol\":7047:7055  c.amount */\n      0x02\n      add\n      sload\n        /* \"HashedTimelock.sol\":7070:7071  c */\n      dup4\n        /* \"HashedTimelock.sol\":7070:7080  c.hashlock */\n      0x03\n      add\n      sload\n        /* \"HashedTimelock.sol\":7095:7096  c */\n      dup5\n        /* \"HashedTimelock.sol\":7095:7105  c.timelock */\n      0x04\n      add\n      sload\n        /* \"HashedTimelock.sol\":7120:7121  c */\n      dup6\n        /* \"HashedTimelock.sol\":7120:7131  c.withdrawn */\n      0x05\n      add\n      0x00\n      swap1\n      sload\n      swap1\n      0x0100\n      exp\n      swap1\n      div\n      0xff\n      and\n        /* \"HashedTimelock.sol\":7146:7147  c */\n      dup7\n        /* \"HashedTimelock.sol\":7146:7156  c.refunded */\n      0x05\n      add\n      0x01\n      swap1\n      sload\n      swap1\n      0x0100\n      exp\n      swap1\n      div\n      0xff\n      and\n        /* \"HashedTimelock.sol\":7171:7172  c */\n      dup8\n        /* \"HashedTimelock.sol\":7171:7181  c.preimage */\n      0x06\n      add\n      sload\n        /* \"HashedTimelock.sol\":6977:7192  return (\r... */\n      swap9\n      pop\n      swap9\n      pop\n      swap9\n      pop\n      swap9\n      pop\n      swap9\n      pop\n      swap9\n      pop\n      swap9\n      pop\n      swap9\n      pop\n      pop\n        /* \"HashedTimelock.sol\":6448:7200  function getContract(bytes32 _contractId)\r... */\n    tag_103:\n      swap2\n      swap4\n      swap6\n      swap8\n      pop\n      swap2\n      swap4\n      swap6\n      swap8\n      jump\t// out\n        /* \"HashedTimelock.sol\":7334:7518  function haveContract(bytes32 _contractId)\r... */\n    tag_49:\n        /* \"HashedTimelock.sol\":7427:7438  bool exists */\n      0x00\n        /* \"HashedTimelock.sol\":7507:7508  0 */\n      dup1\n        /* \"HashedTimelock.sol\":7466:7509  contracts[_contractId].sender != address(0) */\n      0xffffffffffffffffffffffffffffffffffffffff\n      and\n        /* \"HashedTimelock.sol\":7466:7475  contracts */\n      0x00\n        /* \"HashedTimelock.sol\":7466:7488  contracts[_contractId] */\n      dup1\n        /* \"HashedTimelock.sol\":7476:7487  _contractId */\n      dup5\n        /* \"HashedTimelock.sol\":7466:7488  contracts[_contractId] */\n      dup2\n      mstore\n      0x20\n      add\n      swap1\n      dup2\n      mstore\n      0x20\n      add\n      0x00\n      keccak256\n        /* \"HashedTimelock.sol\":7466:7495  contracts[_contractId].sender */\n      0x00\n      add\n      0x00\n      swap1\n      sload\n      swap1\n      0x0100\n      exp\n      swap1\n      div\n      0xffffffffffffffffffffffffffffffffffffffff\n      and\n        /* \"HashedTimelock.sol\":7466:7509  contracts[_contractId].sender != address(0) */\n      0xffffffffffffffffffffffffffffffffffffffff\n      and\n      eq\n      iszero\n        /* \"HashedTimelock.sol\":7456:7510  exists = (contracts[_contractId].sender != address(0)) */\n      swap1\n      pop\n        /* \"HashedTimelock.sol\":7334:7518  function haveContract(bytes32 _contractId)\r... */\n      swap2\n      swap1\n      pop\n      jump\t// out\n        /* \"#utility.yul\":7:162   */\n    tag_108:\n        /* \"#utility.yul\":61:66   */\n      0x00\n        /* \"#utility.yul\":99:105   */\n      dup2\n        /* \"#utility.yul\":86:106   */\n      calldataload\n        /* \"#utility.yul\":77:106   */\n      swap1\n      pop\n        /* \"#utility.yul\":115:156   */\n      tag_110\n        /* \"#utility.yul\":150:155   */\n      dup2\n        /* \"#utility.yul\":115:156   */\n      tag_111\n      jump\t// in\n    tag_110:\n        /* \"#utility.yul\":67:162   */\n      swap3\n      swap2\n      pop\n      pop\n      jump\t// out\n        /* \"#utility.yul\":168:307   */\n    tag_112:\n        /* \"#utility.yul\":214:219   */\n      0x00\n        /* \"#utility.yul\":252:258   */\n      dup2\n        /* \"#utility.yul\":239:259   */\n      calldataload\n        /* \"#utility.yul\":230:259   */\n      swap1\n      pop\n        /* \"#utility.yul\":268:301   */\n      tag_114\n        /* \"#utility.yul\":295:300   */\n      dup2\n        /* \"#utility.yul\":268:301   */\n      tag_115\n      jump\t// in\n    tag_114:\n        /* \"#utility.yul\":220:307   */\n      swap3\n      swap2\n      pop\n      pop\n      jump\t// out\n        /* \"#utility.yul\":313:456   */\n    tag_116:\n        /* \"#utility.yul\":370:375   */\n      0x00\n        /* \"#utility.yul\":401:407   */\n      dup2\n        /* \"#utility.yul\":395:408   */\n      mload\n        /* \"#utility.yul\":386:408   */\n      swap1\n      pop\n        /* \"#utility.yul\":417:450   */\n      tag_118\n        /* \"#utility.yul\":444:449   */\n      dup2\n        /* \"#utility.yul\":417:450   */\n      tag_115\n      jump\t// in\n    tag_118:\n        /* \"#utility.yul\":376:456   */\n      swap3\n      swap2\n      pop\n      pop\n      jump\t// out\n        /* \"#utility.yul\":462:601   */\n    tag_119:\n        /* \"#utility.yul\":508:513   */\n      0x00\n        /* \"#utility.yul\":546:552   */\n      dup2\n        /* \"#utility.yul\":533:553   */\n      calldataload\n        /* \"#utility.yul\":524:553   */\n      swap1\n      pop\n        /* \"#utility.yul\":562:595   */\n      tag_121\n        /* \"#utility.yul\":589:594   */\n      dup2\n        /* \"#utility.yul\":562:595   */\n      tag_122\n      jump\t// in\n    tag_121:\n        /* \"#utility.yul\":514:601   */\n      swap3\n      swap2\n      pop\n      pop\n      jump\t// out\n        /* \"#utility.yul\":607:1242   */\n    tag_8:\n        /* \"#utility.yul\":692:698   */\n      0x00\n        /* \"#utility.yul\":700:706   */\n      dup1\n        /* \"#utility.yul\":708:714   */\n      0x00\n        /* \"#utility.yul\":757:759   */\n      0x60\n        /* \"#utility.yul\":745:754   */\n      dup5\n        /* \"#utility.yul\":736:743   */\n      dup7\n        /* \"#utility.yul\":732:755   */\n      sub\n        /* \"#utility.yul\":728:760   */\n      slt\n        /* \"#utility.yul\":725:727   */\n      iszero\n      tag_124\n      jumpi\n        /* \"#utility.yul\":763:842   */\n      tag_125\n      tag_126\n      jump\t// in\n    tag_125:\n        /* \"#utility.yul\":725:727   */\n    tag_124:\n        /* \"#utility.yul\":883:884   */\n      0x00\n        /* \"#utility.yul\":908:969   */\n      tag_127\n        /* \"#utility.yul\":961:968   */\n      dup7\n        /* \"#utility.yul\":952:958   */\n      dup3\n        /* \"#utility.yul\":941:950   */\n      dup8\n        /* \"#utility.yul\":937:959   */\n      add\n        /* \"#utility.yul\":908:969   */\n      tag_108\n      jump\t// in\n    tag_127:\n        /* \"#utility.yul\":898:969   */\n      swap4\n      pop\n        /* \"#utility.yul\":854:979   */\n      pop\n        /* \"#utility.yul\":1018:1020   */\n      0x20\n        /* \"#utility.yul\":1044:1097   */\n      tag_128\n        /* \"#utility.yul\":1089:1096   */\n      dup7\n        /* \"#utility.yul\":1080:1086   */\n      dup3\n        /* \"#utility.yul\":1069:1078   */\n      dup8\n        /* \"#utility.yul\":1065:1087   */\n      add\n        /* \"#utility.yul\":1044:1097   */\n      tag_112\n      jump\t// in\n    tag_128:\n        /* \"#utility.yul\":1034:1097   */\n      swap3\n      pop\n        /* \"#utility.yul\":989:1107   */\n      pop\n        /* \"#utility.yul\":1146:1148   */\n      0x40\n        /* \"#utility.yul\":1172:1225   */\n      tag_129\n        /* \"#utility.yul\":1217:1224   */\n      dup7\n        /* \"#utility.yul\":1208:1214   */\n      dup3\n        /* \"#utility.yul\":1197:1206   */\n      dup8\n        /* \"#utility.yul\":1193:1215   */\n      add\n        /* \"#utility.yul\":1172:1225   */\n      tag_119\n      jump\t// in\n    tag_129:\n        /* \"#utility.yul\":1162:1225   */\n      swap2\n      pop\n        /* \"#utility.yul\":1117:1235   */\n      pop\n        /* \"#utility.yul\":715:1242   */\n      swap3\n      pop\n      swap3\n      pop\n      swap3\n      jump\t// out\n        /* \"#utility.yul\":1248:1577   */\n    tag_22:\n        /* \"#utility.yul\":1307:1313   */\n      0x00\n        /* \"#utility.yul\":1356:1358   */\n      0x20\n        /* \"#utility.yul\":1344:1353   */\n      dup3\n        /* \"#utility.yul\":1335:1342   */\n      dup5\n        /* \"#utility.yul\":1331:1354   */\n      sub\n        /* \"#utility.yul\":1327:1359   */\n      slt\n        /* \"#utility.yul\":1324:1326   */\n      iszero\n      tag_131\n      jumpi\n        /* \"#utility.yul\":1362:1441   */\n      tag_132\n      tag_126\n      jump\t// in\n    tag_132:\n        /* \"#utility.yul\":1324:1326   */\n    tag_131:\n        /* \"#utility.yul\":1482:1483   */\n      0x00\n        /* \"#utility.yul\":1507:1560   */\n      tag_133\n        /* \"#utility.yul\":1552:1559   */\n      dup5\n        /* \"#utility.yul\":1543:1549   */\n      dup3\n        /* \"#utility.yul\":1532:1541   */\n      dup6\n        /* \"#utility.yul\":1528:1550   */\n      add\n        /* \"#utility.yul\":1507:1560   */\n      tag_112\n      jump\t// in\n    tag_133:\n        /* \"#utility.yul\":1497:1560   */\n      swap2\n      pop\n        /* \"#utility.yul\":1453:1570   */\n      pop\n        /* \"#utility.yul\":1314:1577   */\n      swap3\n      swap2\n      pop\n      pop\n      jump\t// out\n        /* \"#utility.yul\":1583:1934   */\n    tag_47:\n        /* \"#utility.yul\":1653:1659   */\n      0x00\n        /* \"#utility.yul\":1702:1704   */\n      0x20\n        /* \"#utility.yul\":1690:1699   */\n      dup3\n        /* \"#utility.yul\":1681:1688   */\n      dup5\n        /* \"#utility.yul\":1677:1700   */\n      sub\n        /* \"#utility.yul\":1673:1705   */\n      slt\n        /* \"#utility.yul\":1670:1672   */\n      iszero\n      tag_135\n      jumpi\n        /* \"#utility.yul\":1708:1787   */\n      tag_136\n      tag_126\n      jump\t// in\n    tag_136:\n        /* \"#utility.yul\":1670:1672   */\n    tag_135:\n        /* \"#utility.yul\":1828:1829   */\n      0x00\n        /* \"#utility.yul\":1853:1917   */\n      tag_137\n        /* \"#utility.yul\":1909:1916   */\n      dup5\n        /* \"#utility.yul\":1900:1906   */\n      dup3\n        /* \"#utility.yul\":1889:1898   */\n      dup6\n        /* \"#utility.yul\":1885:1907   */\n      add\n        /* \"#utility.yul\":1853:1917   */\n      tag_116\n      jump\t// in\n    tag_137:\n        /* \"#utility.yul\":1843:1917   */\n      swap2\n      pop\n        /* \"#utility.yul\":1799:1927   */\n      pop\n        /* \"#utility.yul\":1660:1934   */\n      swap3\n      swap2\n      pop\n      pop\n      jump\t// out\n        /* \"#utility.yul\":1940:2414   */\n    tag_15:\n        /* \"#utility.yul\":2008:2014   */\n      0x00\n        /* \"#utility.yul\":2016:2022   */\n      dup1\n        /* \"#utility.yul\":2065:2067   */\n      0x40\n        /* \"#utility.yul\":2053:2062   */\n      dup4\n        /* \"#utility.yul\":2044:2051   */\n      dup6\n        /* \"#utility.yul\":2040:2063   */\n      sub\n        /* \"#utility.yul\":2036:2068   */\n      slt\n        /* \"#utility.yul\":2033:2035   */\n      iszero\n      tag_139\n      jumpi\n        /* \"#utility.yul\":2071:2150   */\n      tag_140\n      tag_126\n      jump\t// in\n    tag_140:\n        /* \"#utility.yul\":2033:2035   */\n    tag_139:\n        /* \"#utility.yul\":2191:2192   */\n      0x00\n        /* \"#utility.yul\":2216:2269   */\n      tag_141\n        /* \"#utility.yul\":2261:2268   */\n      dup6\n        /* \"#utility.yul\":2252:2258   */\n      dup3\n        /* \"#utility.yul\":2241:2250   */\n      dup7\n        /* \"#utility.yul\":2237:2259   */\n      add\n        /* \"#utility.yul\":2216:2269   */\n      tag_112\n      jump\t// in\n    tag_141:\n        /* \"#utility.yul\":2206:2269   */\n      swap3\n      pop\n        /* \"#utility.yul\":2162:2279   */\n      pop\n        /* \"#utility.yul\":2318:2320   */\n      0x20\n        /* \"#utility.yul\":2344:2397   */\n      tag_142\n        /* \"#utility.yul\":2389:2396   */\n      dup6\n        /* \"#utility.yul\":2380:2386   */\n      dup3\n        /* \"#utility.yul\":2369:2378   */\n      dup7\n        /* \"#utility.yul\":2365:2387   */\n      add\n        /* \"#utility.yul\":2344:2397   */\n      tag_112\n      jump\t// in\n    tag_142:\n        /* \"#utility.yul\":2334:2397   */\n      swap2\n      pop\n        /* \"#utility.yul\":2289:2407   */\n      pop\n        /* \"#utility.yul\":2023:2414   */\n      swap3\n      pop\n      swap3\n      swap1\n      pop\n      jump\t// out\n        /* \"#utility.yul\":2420:2609   */\n    tag_143:\n        /* \"#utility.yul\":2541:2602   */\n      tag_145\n        /* \"#utility.yul\":2569:2601   */\n      tag_146\n        /* \"#utility.yul\":2595:2600   */\n      dup3\n        /* \"#utility.yul\":2569:2601   */\n      tag_147\n      jump\t// in\n    tag_146:\n        /* \"#utility.yul\":2541:2602   */\n      tag_148\n      jump\t// in\n    tag_145:\n        /* \"#utility.yul\":2536:2539   */\n      dup3\n        /* \"#utility.yul\":2529:2603   */\n      mstore\n        /* \"#utility.yul\":2519:2609   */\n      pop\n      pop\n      jump\t// out\n        /* \"#utility.yul\":2615:2733   */\n    tag_149:\n        /* \"#utility.yul\":2702:2726   */\n      tag_151\n        /* \"#utility.yul\":2720:2725   */\n      dup2\n        /* \"#utility.yul\":2702:2726   */\n      tag_152\n      jump\t// in\n    tag_151:\n        /* \"#utility.yul\":2697:2700   */\n      dup3\n        /* \"#utility.yul\":2690:2727   */\n      mstore\n        /* \"#utility.yul\":2680:2733   */\n      pop\n      pop\n      jump\t// out\n        /* \"#utility.yul\":2739:2896   */\n    tag_153:\n        /* \"#utility.yul\":2844:2889   */\n      tag_155\n        /* \"#utility.yul\":2864:2888   */\n      tag_156\n        /* \"#utility.yul\":2882:2887   */\n      dup3\n        /* \"#utility.yul\":2864:2888   */\n      tag_152\n      jump\t// in\n    tag_156:\n        /* \"#utility.yul\":2844:2889   */\n      tag_157\n      jump\t// in\n    tag_155:\n        /* \"#utility.yul\":2839:2842   */\n      dup3\n        /* \"#utility.yul\":2832:2890   */\n      mstore\n        /* \"#utility.yul\":2822:2896   */\n      pop\n      pop\n      jump\t// out\n        /* \"#utility.yul\":2902:3011   */\n    tag_158:\n        /* \"#utility.yul\":2983:3004   */\n      tag_160\n        /* \"#utility.yul\":2998:3003   */\n      dup2\n        /* \"#utility.yul\":2983:3004   */\n      tag_161\n      jump\t// in\n    tag_160:\n        /* \"#utility.yul\":2978:2981   */\n      dup3\n        /* \"#utility.yul\":2971:3005   */\n      mstore\n        /* \"#utility.yul\":2961:3011   */\n      pop\n      pop\n      jump\t// out\n        /* \"#utility.yul\":3017:3135   */\n    tag_162:\n        /* \"#utility.yul\":3104:3128   */\n      tag_164\n        /* \"#utility.yul\":3122:3127   */\n      dup2\n        /* \"#utility.yul\":3104:3128   */\n      tag_165\n      jump\t// in\n    tag_164:\n        /* \"#utility.yul\":3099:3102   */\n      dup3\n        /* \"#utility.yul\":3092:3129   */\n      mstore\n        /* \"#utility.yul\":3082:3135   */\n      pop\n      pop\n      jump\t// out\n        /* \"#utility.yul\":3141:3298   */\n    tag_166:\n        /* \"#utility.yul\":3246:3291   */\n      tag_168\n        /* \"#utility.yul\":3266:3290   */\n      tag_169\n        /* \"#utility.yul\":3284:3289   */\n      dup3\n        /* \"#utility.yul\":3266:3290   */\n      tag_165\n      jump\t// in\n    tag_169:\n        /* \"#utility.yul\":3246:3291   */\n      tag_170\n      jump\t// in\n    tag_168:\n        /* \"#utility.yul\":3241:3244   */\n      dup3\n        /* \"#utility.yul\":3234:3292   */\n      mstore\n        /* \"#utility.yul\":3224:3298   */\n      pop\n      pop\n      jump\t// out\n        /* \"#utility.yul\":3304:3677   */\n    tag_171:\n        /* \"#utility.yul\":3408:3411   */\n      0x00\n        /* \"#utility.yul\":3436:3474   */\n      tag_173\n        /* \"#utility.yul\":3468:3473   */\n      dup3\n        /* \"#utility.yul\":3436:3474   */\n      tag_174\n      jump\t// in\n    tag_173:\n        /* \"#utility.yul\":3490:3578   */\n      tag_175\n        /* \"#utility.yul\":3571:3577   */\n      dup2\n        /* \"#utility.yul\":3566:3569   */\n      dup6\n        /* \"#utility.yul\":3490:3578   */\n      tag_176\n      jump\t// in\n    tag_175:\n        /* \"#utility.yul\":3483:3578   */\n      swap4\n      pop\n        /* \"#utility.yul\":3587:3639   */\n      tag_177\n        /* \"#utility.yul\":3632:3638   */\n      dup2\n        /* \"#utility.yul\":3627:3630   */\n      dup6\n        /* \"#utility.yul\":3620:3624   */\n      0x20\n        /* \"#utility.yul\":3613:3618   */\n      dup7\n        /* \"#utility.yul\":3609:3625   */\n      add\n        /* \"#utility.yul\":3587:3639   */\n      tag_178\n      jump\t// in\n    tag_177:\n        /* \"#utility.yul\":3664:3670   */\n      dup1\n        /* \"#utility.yul\":3659:3662   */\n      dup5\n        /* \"#utility.yul\":3655:3671   */\n      add\n        /* \"#utility.yul\":3648:3671   */\n      swap2\n      pop\n        /* \"#utility.yul\":3412:3677   */\n      pop\n      swap3\n      swap2\n      pop\n      pop\n      jump\t// out\n        /* \"#utility.yul\":3683:4049   */\n    tag_179:\n        /* \"#utility.yul\":3825:3828   */\n      0x00\n        /* \"#utility.yul\":3846:3913   */\n      tag_181\n        /* \"#utility.yul\":3910:3912   */\n      0x23\n        /* \"#utility.yul\":3905:3908   */\n      dup4\n        /* \"#utility.yul\":3846:3913   */\n      tag_182\n      jump\t// in\n    tag_181:\n        /* \"#utility.yul\":3839:3913   */\n      swap2\n      pop\n        /* \"#utility.yul\":3922:4015   */\n      tag_183\n        /* \"#utility.yul\":4011:4014   */\n      dup3\n        /* \"#utility.yul\":3922:4015   */\n      tag_184\n      jump\t// in\n    tag_183:\n        /* \"#utility.yul\":4040:4042   */\n      0x40\n        /* \"#utility.yul\":4035:4038   */\n      dup3\n        /* \"#utility.yul\":4031:4043   */\n      add\n        /* \"#utility.yul\":4024:4043   */\n      swap1\n      pop\n        /* \"#utility.yul\":3829:4049   */\n      swap2\n      swap1\n      pop\n      jump\t// out\n        /* \"#utility.yul\":4055:4421   */\n    tag_185:\n        /* \"#utility.yul\":4197:4200   */\n      0x00\n        /* \"#utility.yul\":4218:4285   */\n      tag_187\n        /* \"#utility.yul\":4282:4284   */\n      0x1a\n        /* \"#utility.yul\":4277:4280   */\n      dup4\n        /* \"#utility.yul\":4218:4285   */\n      tag_182\n      jump\t// in\n    tag_187:\n        /* \"#utility.yul\":4211:4285   */\n      swap2\n      pop\n        /* \"#utility.yul\":4294:4387   */\n      tag_188\n        /* \"#utility.yul\":4383:4386   */\n      dup3\n        /* \"#utility.yul\":4294:4387   */\n      tag_189\n      jump\t// in\n    tag_188:\n        /* \"#utility.yul\":4412:4414   */\n      0x20\n        /* \"#utility.yul\":4407:4410   */\n      dup3\n        /* \"#utility.yul\":4403:4415   */\n      add\n        /* \"#utility.yul\":4396:4415   */\n      swap1\n      pop\n        /* \"#utility.yul\":4201:4421   */\n      swap2\n      swap1\n      pop\n      jump\t// out\n        /* \"#utility.yul\":4427:4793   */\n    tag_190:\n        /* \"#utility.yul\":4569:4572   */\n      0x00\n        /* \"#utility.yul\":4590:4657   */\n      tag_192\n        /* \"#utility.yul\":4654:4656   */\n      0x19\n        /* \"#utility.yul\":4649:4652   */\n      dup4\n        /* \"#utility.yul\":4590:4657   */\n      tag_182\n      jump\t// in\n    tag_192:\n        /* \"#utility.yul\":4583:4657   */\n      swap2\n      pop\n        /* \"#utility.yul\":4666:4759   */\n      tag_193\n        /* \"#utility.yul\":4755:4758   */\n      dup3\n        /* \"#utility.yul\":4666:4759   */\n      tag_194\n      jump\t// in\n    tag_193:\n        /* \"#utility.yul\":4784:4786   */\n      0x20\n        /* \"#utility.yul\":4779:4782   */\n      dup3\n        /* \"#utility.yul\":4775:4787   */\n      add\n        /* \"#utility.yul\":4768:4787   */\n      swap1\n      pop\n        /* \"#utility.yul\":4573:4793   */\n      swap2\n      swap1\n      pop\n      jump\t// out\n        /* \"#utility.yul\":4799:5165   */\n    tag_195:\n        /* \"#utility.yul\":4941:4944   */\n      0x00\n        /* \"#utility.yul\":4962:5029   */\n      tag_197\n        /* \"#utility.yul\":5026:5028   */\n      0x1d\n        /* \"#utility.yul\":5021:5024   */\n      dup4\n        /* \"#utility.yul\":4962:5029   */\n      tag_182\n      jump\t// in\n    tag_197:\n        /* \"#utility.yul\":4955:5029   */\n      swap2\n      pop\n        /* \"#utility.yul\":5038:5131   */\n      tag_198\n        /* \"#utility.yul\":5127:5130   */\n      dup3\n        /* \"#utility.yul\":5038:5131   */\n      tag_199\n      jump\t// in\n    tag_198:\n        /* \"#utility.yul\":5156:5158   */\n      0x20\n        /* \"#utility.yul\":5151:5154   */\n      dup3\n        /* \"#utility.yul\":5147:5159   */\n      add\n        /* \"#utility.yul\":5140:5159   */\n      swap1\n      pop\n        /* \"#utility.yul\":4945:5165   */\n      swap2\n      swap1\n      pop\n      jump\t// out\n        /* \"#utility.yul\":5171:5537   */\n    tag_200:\n        /* \"#utility.yul\":5313:5316   */\n      0x00\n        /* \"#utility.yul\":5334:5401   */\n      tag_202\n        /* \"#utility.yul\":5398:5400   */\n      0x17\n        /* \"#utility.yul\":5393:5396   */\n      dup4\n        /* \"#utility.yul\":5334:5401   */\n      tag_182\n      jump\t// in\n    tag_202:\n        /* \"#utility.yul\":5327:5401   */\n      swap2\n      pop\n        /* \"#utility.yul\":5410:5503   */\n      tag_203\n        /* \"#utility.yul\":5499:5502   */\n      dup3\n        /* \"#utility.yul\":5410:5503   */\n      tag_204\n      jump\t// in\n    tag_203:\n        /* \"#utility.yul\":5528:5530   */\n      0x20\n        /* \"#utility.yul\":5523:5526   */\n      dup3\n        /* \"#utility.yul\":5519:5531   */\n      add\n        /* \"#utility.yul\":5512:5531   */\n      swap1\n      pop\n        /* \"#utility.yul\":5317:5537   */\n      swap2\n      swap1\n      pop\n      jump\t// out\n        /* \"#utility.yul\":5543:5909   */\n    tag_205:\n        /* \"#utility.yul\":5685:5688   */\n      0x00\n        /* \"#utility.yul\":5706:5773   */\n      tag_207\n        /* \"#utility.yul\":5770:5772   */\n      0x23\n        /* \"#utility.yul\":5765:5768   */\n      dup4\n        /* \"#utility.yul\":5706:5773   */\n      tag_182\n      jump\t// in\n    tag_207:\n        /* \"#utility.yul\":5699:5773   */\n      swap2\n      pop\n        /* \"#utility.yul\":5782:5875   */\n      tag_208\n        /* \"#utility.yul\":5871:5874   */\n      dup3\n        /* \"#utility.yul\":5782:5875   */\n      tag_209\n      jump\t// in\n    tag_208:\n        /* \"#utility.yul\":5900:5902   */\n      0x40\n        /* \"#utility.yul\":5895:5898   */\n      dup3\n        /* \"#utility.yul\":5891:5903   */\n      add\n        /* \"#utility.yul\":5884:5903   */\n      swap1\n      pop\n        /* \"#utility.yul\":5689:5909   */\n      swap2\n      swap1\n      pop\n      jump\t// out\n        /* \"#utility.yul\":5915:6281   */\n    tag_210:\n        /* \"#utility.yul\":6057:6060   */\n      0x00\n        /* \"#utility.yul\":6078:6145   */\n      tag_212\n        /* \"#utility.yul\":6142:6144   */\n      0x1c\n        /* \"#utility.yul\":6137:6140   */\n      dup4\n        /* \"#utility.yul\":6078:6145   */\n      tag_182\n      jump\t// in\n    tag_212:\n        /* \"#utility.yul\":6071:6145   */\n      swap2\n      pop\n        /* \"#utility.yul\":6154:6247   */\n      tag_213\n        /* \"#utility.yul\":6243:6246   */\n      dup3\n        /* \"#utility.yul\":6154:6247   */\n      tag_214\n      jump\t// in\n    tag_213:\n        /* \"#utility.yul\":6272:6274   */\n      0x20\n        /* \"#utility.yul\":6267:6270   */\n      dup3\n        /* \"#utility.yul\":6263:6275   */\n      add\n        /* \"#utility.yul\":6256:6275   */\n      swap1\n      pop\n        /* \"#utility.yul\":6061:6281   */\n      swap2\n      swap1\n      pop\n      jump\t// out\n        /* \"#utility.yul\":6287:6653   */\n    tag_215:\n        /* \"#utility.yul\":6429:6432   */\n      0x00\n        /* \"#utility.yul\":6450:6517   */\n      tag_217\n        /* \"#utility.yul\":6514:6516   */\n      0x1f\n        /* \"#utility.yul\":6509:6512   */\n      dup4\n        /* \"#utility.yul\":6450:6517   */\n      tag_182\n      jump\t// in\n    tag_217:\n        /* \"#utility.yul\":6443:6517   */\n      swap2\n      pop\n        /* \"#utility.yul\":6526:6619   */\n      tag_218\n        /* \"#utility.yul\":6615:6618   */\n      dup3\n        /* \"#utility.yul\":6526:6619   */\n      tag_219\n      jump\t// in\n    tag_218:\n        /* \"#utility.yul\":6644:6646   */\n      0x20\n        /* \"#utility.yul\":6639:6642   */\n      dup3\n        /* \"#utility.yul\":6635:6647   */\n      add\n        /* \"#utility.yul\":6628:6647   */\n      swap1\n      pop\n        /* \"#utility.yul\":6433:6653   */\n      swap2\n      swap1\n      pop\n      jump\t// out\n        /* \"#utility.yul\":6659:7025   */\n    tag_220:\n        /* \"#utility.yul\":6801:6804   */\n      0x00\n        /* \"#utility.yul\":6822:6889   */\n      tag_222\n        /* \"#utility.yul\":6886:6888   */\n      0x15\n        /* \"#utility.yul\":6881:6884   */\n      dup4\n        /* \"#utility.yul\":6822:6889   */\n      tag_182\n      jump\t// in\n    tag_222:\n        /* \"#utility.yul\":6815:6889   */\n      swap2\n      pop\n        /* \"#utility.yul\":6898:6991   */\n      tag_223\n        /* \"#utility.yul\":6987:6990   */\n      dup3\n        /* \"#utility.yul\":6898:6991   */\n      tag_224\n      jump\t// in\n    tag_223:\n        /* \"#utility.yul\":7016:7018   */\n      0x20\n        /* \"#utility.yul\":7011:7014   */\n      dup3\n        /* \"#utility.yul\":7007:7019   */\n      add\n        /* \"#utility.yul\":7000:7019   */\n      swap1\n      pop\n        /* \"#utility.yul\":6805:7025   */\n      swap2\n      swap1\n      pop\n      jump\t// out\n        /* \"#utility.yul\":7031:7397   */\n    tag_225:\n        /* \"#utility.yul\":7173:7176   */\n      0x00\n        /* \"#utility.yul\":7194:7261   */\n      tag_227\n        /* \"#utility.yul\":7258:7260   */\n      0x16\n        /* \"#utility.yul\":7253:7256   */\n      dup4\n        /* \"#utility.yul\":7194:7261   */\n      tag_182\n      jump\t// in\n    tag_227:\n        /* \"#utility.yul\":7187:7261   */\n      swap2\n      pop\n        /* \"#utility.yul\":7270:7363   */\n      tag_228\n        /* \"#utility.yul\":7359:7362   */\n      dup3\n        /* \"#utility.yul\":7270:7363   */\n      tag_229\n      jump\t// in\n    tag_228:\n        /* \"#utility.yul\":7388:7390   */\n      0x20\n        /* \"#utility.yul\":7383:7386   */\n      dup3\n        /* \"#utility.yul\":7379:7391   */\n      add\n        /* \"#utility.yul\":7372:7391   */\n      swap1\n      pop\n        /* \"#utility.yul\":7177:7397   */\n      swap2\n      swap1\n      pop\n      jump\t// out\n        /* \"#utility.yul\":7403:7769   */\n    tag_230:\n        /* \"#utility.yul\":7545:7548   */\n      0x00\n        /* \"#utility.yul\":7566:7633   */\n      tag_232\n        /* \"#utility.yul\":7630:7632   */\n      0x1c\n        /* \"#utility.yul\":7625:7628   */\n      dup4\n        /* \"#utility.yul\":7566:7633   */\n      tag_182\n      jump\t// in\n    tag_232:\n        /* \"#utility.yul\":7559:7633   */\n      swap2\n      pop\n        /* \"#utility.yul\":7642:7735   */\n      tag_233\n        /* \"#utility.yul\":7731:7734   */\n      dup3\n        /* \"#utility.yul\":7642:7735   */\n      tag_234\n      jump\t// in\n    tag_233:\n        /* \"#utility.yul\":7760:7762   */\n      0x20\n        /* \"#utility.yul\":7755:7758   */\n      dup3\n        /* \"#utility.yul\":7751:7763   */\n      add\n        /* \"#utility.yul\":7744:7763   */\n      swap1\n      pop\n        /* \"#utility.yul\":7549:7769   */\n      swap2\n      swap1\n      pop\n      jump\t// out\n        /* \"#utility.yul\":7775:8141   */\n    tag_235:\n        /* \"#utility.yul\":7917:7920   */\n      0x00\n        /* \"#utility.yul\":7938:8005   */\n      tag_237\n        /* \"#utility.yul\":8002:8004   */\n      0x31\n        /* \"#utility.yul\":7997:8000   */\n      dup4\n        /* \"#utility.yul\":7938:8005   */\n      tag_182\n      jump\t// in\n    tag_237:\n        /* \"#utility.yul\":7931:8005   */\n      swap2\n      pop\n        /* \"#utility.yul\":8014:8107   */\n      tag_238\n        /* \"#utility.yul\":8103:8106   */\n      dup3\n        /* \"#utility.yul\":8014:8107   */\n      tag_239\n      jump\t// in\n    tag_238:\n        /* \"#utility.yul\":8132:8134   */\n      0x40\n        /* \"#utility.yul\":8127:8130   */\n      dup3\n        /* \"#utility.yul\":8123:8135   */\n      add\n        /* \"#utility.yul\":8116:8135   */\n      swap1\n      pop\n        /* \"#utility.yul\":7921:8141   */\n      swap2\n      swap1\n      pop\n      jump\t// out\n        /* \"#utility.yul\":8147:8265   */\n    tag_240:\n        /* \"#utility.yul\":8234:8258   */\n      tag_242\n        /* \"#utility.yul\":8252:8257   */\n      dup2\n        /* \"#utility.yul\":8234:8258   */\n      tag_243\n      jump\t// in\n    tag_242:\n        /* \"#utility.yul\":8229:8232   */\n      dup3\n        /* \"#utility.yul\":8222:8259   */\n      mstore\n        /* \"#utility.yul\":8212:8265   */\n      pop\n      pop\n      jump\t// out\n        /* \"#utility.yul\":8271:8428   */\n    tag_244:\n        /* \"#utility.yul\":8376:8421   */\n      tag_246\n        /* \"#utility.yul\":8396:8420   */\n      tag_247\n        /* \"#utility.yul\":8414:8419   */\n      dup3\n        /* \"#utility.yul\":8396:8420   */\n      tag_243\n      jump\t// in\n    tag_247:\n        /* \"#utility.yul\":8376:8421   */\n      tag_248\n      jump\t// in\n    tag_246:\n        /* \"#utility.yul\":8371:8374   */\n      dup3\n        /* \"#utility.yul\":8364:8422   */\n      mstore\n        /* \"#utility.yul\":8354:8428   */\n      pop\n      pop\n      jump\t// out\n        /* \"#utility.yul\":8434:9286   */\n    tag_41:\n        /* \"#utility.yul\":8674:8677   */\n      0x00\n        /* \"#utility.yul\":8689:8764   */\n      tag_250\n        /* \"#utility.yul\":8760:8763   */\n      dup3\n        /* \"#utility.yul\":8751:8757   */\n      dup9\n        /* \"#utility.yul\":8689:8764   */\n      tag_153\n      jump\t// in\n    tag_250:\n        /* \"#utility.yul\":8789:8791   */\n      0x14\n        /* \"#utility.yul\":8784:8787   */\n      dup3\n        /* \"#utility.yul\":8780:8792   */\n      add\n        /* \"#utility.yul\":8773:8792   */\n      swap2\n      pop\n        /* \"#utility.yul\":8802:8893   */\n      tag_251\n        /* \"#utility.yul\":8889:8892   */\n      dup3\n        /* \"#utility.yul\":8880:8886   */\n      dup8\n        /* \"#utility.yul\":8802:8893   */\n      tag_143\n      jump\t// in\n    tag_251:\n        /* \"#utility.yul\":8918:8920   */\n      0x14\n        /* \"#utility.yul\":8913:8916   */\n      dup3\n        /* \"#utility.yul\":8909:8921   */\n      add\n        /* \"#utility.yul\":8902:8921   */\n      swap2\n      pop\n        /* \"#utility.yul\":8931:9006   */\n      tag_252\n        /* \"#utility.yul\":9002:9005   */\n      dup3\n        /* \"#utility.yul\":8993:8999   */\n      dup7\n        /* \"#utility.yul\":8931:9006   */\n      tag_244\n      jump\t// in\n    tag_252:\n        /* \"#utility.yul\":9031:9033   */\n      0x20\n        /* \"#utility.yul\":9026:9029   */\n      dup3\n        /* \"#utility.yul\":9022:9034   */\n      add\n        /* \"#utility.yul\":9015:9034   */\n      swap2\n      pop\n        /* \"#utility.yul\":9044:9119   */\n      tag_253\n        /* \"#utility.yul\":9115:9118   */\n      dup3\n        /* \"#utility.yul\":9106:9112   */\n      dup6\n        /* \"#utility.yul\":9044:9119   */\n      tag_166\n      jump\t// in\n    tag_253:\n        /* \"#utility.yul\":9144:9146   */\n      0x20\n        /* \"#utility.yul\":9139:9142   */\n      dup3\n        /* \"#utility.yul\":9135:9147   */\n      add\n        /* \"#utility.yul\":9128:9147   */\n      swap2\n      pop\n        /* \"#utility.yul\":9157:9232   */\n      tag_254\n        /* \"#utility.yul\":9228:9231   */\n      dup3\n        /* \"#utility.yul\":9219:9225   */\n      dup5\n        /* \"#utility.yul\":9157:9232   */\n      tag_244\n      jump\t// in\n    tag_254:\n        /* \"#utility.yul\":9257:9259   */\n      0x20\n        /* \"#utility.yul\":9252:9255   */\n      dup3\n        /* \"#utility.yul\":9248:9260   */\n      add\n        /* \"#utility.yul\":9241:9260   */\n      swap2\n      pop\n        /* \"#utility.yul\":9277:9280   */\n      dup2\n        /* \"#utility.yul\":9270:9280   */\n      swap1\n      pop\n        /* \"#utility.yul\":8678:9286   */\n      swap7\n      swap6\n      pop\n      pop\n      pop\n      pop\n      pop\n      pop\n      jump\t// out\n        /* \"#utility.yul\":9292:9548   */\n    tag_62:\n        /* \"#utility.yul\":9404:9407   */\n      0x00\n        /* \"#utility.yul\":9419:9494   */\n      tag_256\n        /* \"#utility.yul\":9490:9493   */\n      dup3\n        /* \"#utility.yul\":9481:9487   */\n      dup5\n        /* \"#utility.yul\":9419:9494   */\n      tag_166\n      jump\t// in\n    tag_256:\n        /* \"#utility.yul\":9519:9521   */\n      0x20\n        /* \"#utility.yul\":9514:9517   */\n      dup3\n        /* \"#utility.yul\":9510:9522   */\n      add\n        /* \"#utility.yul\":9503:9522   */\n      swap2\n      pop\n        /* \"#utility.yul\":9539:9542   */\n      dup2\n        /* \"#utility.yul\":9532:9542   */\n      swap1\n      pop\n        /* \"#utility.yul\":9408:9548   */\n      swap3\n      swap2\n      pop\n      pop\n      jump\t// out\n        /* \"#utility.yul\":9554:9825   */\n    tag_43:\n        /* \"#utility.yul\":9684:9687   */\n      0x00\n        /* \"#utility.yul\":9706:9799   */\n      tag_258\n        /* \"#utility.yul\":9795:9798   */\n      dup3\n        /* \"#utility.yul\":9786:9792   */\n      dup5\n        /* \"#utility.yul\":9706:9799   */\n      tag_171\n      jump\t// in\n    tag_258:\n        /* \"#utility.yul\":9699:9799   */\n      swap2\n      pop\n        /* \"#utility.yul\":9816:9819   */\n      dup2\n        /* \"#utility.yul\":9809:9819   */\n      swap1\n      pop\n        /* \"#utility.yul\":9688:9825   */\n      swap3\n      swap2\n      pop\n      pop\n      jump\t// out\n        /* \"#utility.yul\":9831:10804   */\n    tag_30:\n        /* \"#utility.yul\":10108:10112   */\n      0x00\n        /* \"#utility.yul\":10146:10149   */\n      0x0100\n        /* \"#utility.yul\":10135:10144   */\n      dup3\n        /* \"#utility.yul\":10131:10150   */\n      add\n        /* \"#utility.yul\":10123:10150   */\n      swap1\n      pop\n        /* \"#utility.yul\":10160:10231   */\n      tag_260\n        /* \"#utility.yul\":10228:10229   */\n      0x00\n        /* \"#utility.yul\":10217:10226   */\n      dup4\n        /* \"#utility.yul\":10213:10230   */\n      add\n        /* \"#utility.yul\":10204:10210   */\n      dup12\n        /* \"#utility.yul\":10160:10231   */\n      tag_149\n      jump\t// in\n    tag_260:\n        /* \"#utility.yul\":10241:10313   */\n      tag_261\n        /* \"#utility.yul\":10309:10311   */\n      0x20\n        /* \"#utility.yul\":10298:10307   */\n      dup4\n        /* \"#utility.yul\":10294:10312   */\n      add\n        /* \"#utility.yul\":10285:10291   */\n      dup11\n        /* \"#utility.yul\":10241:10313   */\n      tag_149\n      jump\t// in\n    tag_261:\n        /* \"#utility.yul\":10323:10395   */\n      tag_262\n        /* \"#utility.yul\":10391:10393   */\n      0x40\n        /* \"#utility.yul\":10380:10389   */\n      dup4\n        /* \"#utility.yul\":10376:10394   */\n      add\n        /* \"#utility.yul\":10367:10373   */\n      dup10\n        /* \"#utility.yul\":10323:10395   */\n      tag_240\n      jump\t// in\n    tag_262:\n        /* \"#utility.yul\":10405:10477   */\n      tag_263\n        /* \"#utility.yul\":10473:10475   */\n      0x60\n        /* \"#utility.yul\":10462:10471   */\n      dup4\n        /* \"#utility.yul\":10458:10476   */\n      add\n        /* \"#utility.yul\":10449:10455   */\n      dup9\n        /* \"#utility.yul\":10405:10477   */\n      tag_162\n      jump\t// in\n    tag_263:\n        /* \"#utility.yul\":10487:10560   */\n      tag_264\n        /* \"#utility.yul\":10555:10558   */\n      0x80\n        /* \"#utility.yul\":10544:10553   */\n      dup4\n        /* \"#utility.yul\":10540:10559   */\n      add\n        /* \"#utility.yul\":10531:10537   */\n      dup8\n        /* \"#utility.yul\":10487:10560   */\n      tag_240\n      jump\t// in\n    tag_264:\n        /* \"#utility.yul\":10570:10637   */\n      tag_265\n        /* \"#utility.yul\":10632:10635   */\n      0xa0\n        /* \"#utility.yul\":10621:10630   */\n      dup4\n        /* \"#utility.yul\":10617:10636   */\n      add\n        /* \"#utility.yul\":10608:10614   */\n      dup7\n        /* \"#utility.yul\":10570:10637   */\n      tag_158\n      jump\t// in\n    tag_265:\n        /* \"#utility.yul\":10647:10714   */\n      tag_266\n        /* \"#utility.yul\":10709:10712   */\n      0xc0\n        /* \"#utility.yul\":10698:10707   */\n      dup4\n        /* \"#utility.yul\":10694:10713   */\n      add\n        /* \"#utility.yul\":10685:10691   */\n      dup6\n        /* \"#utility.yul\":10647:10714   */\n      tag_158\n      jump\t// in\n    tag_266:\n        /* \"#utility.yul\":10724:10797   */\n      tag_267\n        /* \"#utility.yul\":10792:10795   */\n      0xe0\n        /* \"#utility.yul\":10781:10790   */\n      dup4\n        /* \"#utility.yul\":10777:10796   */\n      add\n        /* \"#utility.yul\":10768:10774   */\n      dup5\n        /* \"#utility.yul\":10724:10797   */\n      tag_162\n      jump\t// in\n    tag_267:\n        /* \"#utility.yul\":10113:10804   */\n      swap10\n      swap9\n      pop\n      pop\n      pop\n      pop\n      pop\n      pop\n      pop\n      pop\n      pop\n      jump\t// out\n        /* \"#utility.yul\":10810:11020   */\n    tag_18:\n        /* \"#utility.yul\":10897:10901   */\n      0x00\n        /* \"#utility.yul\":10935:10937   */\n      0x20\n        /* \"#utility.yul\":10924:10933   */\n      dup3\n        /* \"#utility.yul\":10920:10938   */\n      add\n        /* \"#utility.yul\":10912:10938   */\n      swap1\n      pop\n        /* \"#utility.yul\":10948:11013   */\n      tag_269\n        /* \"#utility.yul\":11010:11011   */\n      0x00\n        /* \"#utility.yul\":10999:11008   */\n      dup4\n        /* \"#utility.yul\":10995:11012   */\n      add\n        /* \"#utility.yul\":10986:10992   */\n      dup5\n        /* \"#utility.yul\":10948:11013   */\n      tag_158\n      jump\t// in\n    tag_269:\n        /* \"#utility.yul\":10902:11020   */\n      swap3\n      swap2\n      pop\n      pop\n      jump\t// out\n        /* \"#utility.yul\":11026:11248   */\n    tag_11:\n        /* \"#utility.yul\":11119:11123   */\n      0x00\n        /* \"#utility.yul\":11157:11159   */\n      0x20\n        /* \"#utility.yul\":11146:11155   */\n      dup3\n        /* \"#utility.yul\":11142:11160   */\n      add\n        /* \"#utility.yul\":11134:11160   */\n      swap1\n      pop\n        /* \"#utility.yul\":11170:11241   */\n      tag_271\n        /* \"#utility.yul\":11238:11239   */\n      0x00\n        /* \"#utility.yul\":11227:11236   */\n      dup4\n        /* \"#utility.yul\":11223:11240   */\n      add\n        /* \"#utility.yul\":11214:11220   */\n      dup5\n        /* \"#utility.yul\":11170:11241   */\n      tag_162\n      jump\t// in\n    tag_271:\n        /* \"#utility.yul\":11124:11248   */\n      swap3\n      swap2\n      pop\n      pop\n      jump\t// out\n        /* \"#utility.yul\":11254:11673   */\n    tag_38:\n        /* \"#utility.yul\":11420:11424   */\n      0x00\n        /* \"#utility.yul\":11458:11460   */\n      0x20\n        /* \"#utility.yul\":11447:11456   */\n      dup3\n        /* \"#utility.yul\":11443:11461   */\n      add\n        /* \"#utility.yul\":11435:11461   */\n      swap1\n      pop\n        /* \"#utility.yul\":11507:11516   */\n      dup2\n        /* \"#utility.yul\":11501:11505   */\n      dup2\n        /* \"#utility.yul\":11497:11517   */\n      sub\n        /* \"#utility.yul\":11493:11494   */\n      0x00\n        /* \"#utility.yul\":11482:11491   */\n      dup4\n        /* \"#utility.yul\":11478:11495   */\n      add\n        /* \"#utility.yul\":11471:11518   */\n      mstore\n        /* \"#utility.yul\":11535:11666   */\n      tag_273\n        /* \"#utility.yul\":11661:11665   */\n      dup2\n        /* \"#utility.yul\":11535:11666   */\n      tag_179\n      jump\t// in\n    tag_273:\n        /* \"#utility.yul\":11527:11666   */\n      swap1\n      pop\n        /* \"#utility.yul\":11425:11673   */\n      swap2\n      swap1\n      pop\n      jump\t// out\n        /* \"#utility.yul\":11679:12098   */\n    tag_73:\n        /* \"#utility.yul\":11845:11849   */\n      0x00\n        /* \"#utility.yul\":11883:11885   */\n      0x20\n        /* \"#utility.yul\":11872:11881   */\n      dup3\n        /* \"#utility.yul\":11868:11886   */\n      add\n        /* \"#utility.yul\":11860:11886   */\n      swap1\n      pop\n        /* \"#utility.yul\":11932:11941   */\n      dup2\n        /* \"#utility.yul\":11926:11930   */\n      dup2\n        /* \"#utility.yul\":11922:11942   */\n      sub\n        /* \"#utility.yul\":11918:11919   */\n      0x00\n        /* \"#utility.yul\":11907:11916   */\n      dup4\n        /* \"#utility.yul\":11903:11920   */\n      add\n        /* \"#utility.yul\":11896:11943   */\n      mstore\n        /* \"#utility.yul\":11960:12091   */\n      tag_275\n        /* \"#utility.yul\":12086:12090   */\n      dup2\n        /* \"#utility.yul\":11960:12091   */\n      tag_185\n      jump\t// in\n    tag_275:\n        /* \"#utility.yul\":11952:12091   */\n      swap1\n      pop\n        /* \"#utility.yul\":11850:12098   */\n      swap2\n      swap1\n      pop\n      jump\t// out\n        /* \"#utility.yul\":12104:12523   */\n    tag_59:\n        /* \"#utility.yul\":12270:12274   */\n      0x00\n        /* \"#utility.yul\":12308:12310   */\n      0x20\n        /* \"#utility.yul\":12297:12306   */\n      dup3\n        /* \"#utility.yul\":12293:12311   */\n      add\n        /* \"#utility.yul\":12285:12311   */\n      swap1\n      pop\n        /* \"#utility.yul\":12357:12366   */\n      dup2\n        /* \"#utility.yul\":12351:12355   */\n      dup2\n        /* \"#utility.yul\":12347:12367   */\n      sub\n        /* \"#utility.yul\":12343:12344   */\n      0x00\n        /* \"#utility.yul\":12332:12341   */\n      dup4\n        /* \"#utility.yul\":12328:12345   */\n      add\n        /* \"#utility.yul\":12321:12368   */\n      mstore\n        /* \"#utility.yul\":12385:12516   */\n      tag_277\n        /* \"#utility.yul\":12511:12515   */\n      dup2\n        /* \"#utility.yul\":12385:12516   */\n      tag_190\n      jump\t// in\n    tag_277:\n        /* \"#utility.yul\":12377:12516   */\n      swap1\n      pop\n        /* \"#utility.yul\":12275:12523   */\n      swap2\n      swap1\n      pop\n      jump\t// out\n        /* \"#utility.yul\":12529:12948   */\n    tag_96:\n        /* \"#utility.yul\":12695:12699   */\n      0x00\n        /* \"#utility.yul\":12733:12735   */\n      0x20\n        /* \"#utility.yul\":12722:12731   */\n      dup3\n        /* \"#utility.yul\":12718:12736   */\n      add\n        /* \"#utility.yul\":12710:12736   */\n      swap1\n      pop\n        /* \"#utility.yul\":12782:12791   */\n      dup2\n        /* \"#utility.yul\":12776:12780   */\n      dup2\n        /* \"#utility.yul\":12772:12792   */\n      sub\n        /* \"#utility.yul\":12768:12769   */\n      0x00\n        /* \"#utility.yul\":12757:12766   */\n      dup4\n        /* \"#utility.yul\":12753:12770   */\n      add\n        /* \"#utility.yul\":12746:12793   */\n      mstore\n        /* \"#utility.yul\":12810:12941   */\n      tag_279\n        /* \"#utility.yul\":12936:12940   */\n      dup2\n        /* \"#utility.yul\":12810:12941   */\n      tag_195\n      jump\t// in\n    tag_279:\n        /* \"#utility.yul\":12802:12941   */\n      swap1\n      pop\n        /* \"#utility.yul\":12700:12948   */\n      swap2\n      swap1\n      pop\n      jump\t// out\n        /* \"#utility.yul\":12954:13373   */\n    tag_52:\n        /* \"#utility.yul\":13120:13124   */\n      0x00\n        /* \"#utility.yul\":13158:13160   */\n      0x20\n        /* \"#utility.yul\":13147:13156   */\n      dup3\n        /* \"#utility.yul\":13143:13161   */\n      add\n        /* \"#utility.yul\":13135:13161   */\n      swap1\n      pop\n        /* \"#utility.yul\":13207:13216   */\n      dup2\n        /* \"#utility.yul\":13201:13205   */\n      dup2\n        /* \"#utility.yul\":13197:13217   */\n      sub\n        /* \"#utility.yul\":13193:13194   */\n      0x00\n        /* \"#utility.yul\":13182:13191   */\n      dup4\n        /* \"#utility.yul\":13178:13195   */\n      add\n        /* \"#utility.yul\":13171:13218   */\n      mstore\n        /* \"#utility.yul\":13235:13366   */\n      tag_281\n        /* \"#utility.yul\":13361:13365   */\n      dup2\n        /* \"#utility.yul\":13235:13366   */\n      tag_200\n      jump\t// in\n    tag_281:\n        /* \"#utility.yul\":13227:13366   */\n      swap1\n      pop\n        /* \"#utility.yul\":13125:13373   */\n      swap2\n      swap1\n      pop\n      jump\t// out\n        /* \"#utility.yul\":13379:13798   */\n    tag_99:\n        /* \"#utility.yul\":13545:13549   */\n      0x00\n        /* \"#utility.yul\":13583:13585   */\n      0x20\n        /* \"#utility.yul\":13572:13581   */\n      dup3\n        /* \"#utility.yul\":13568:13586   */\n      add\n        /* \"#utility.yul\":13560:13586   */\n      swap1\n      pop\n        /* \"#utility.yul\":13632:13641   */\n      dup2\n        /* \"#utility.yul\":13626:13630   */\n      dup2\n        /* \"#utility.yul\":13622:13642   */\n      sub\n        /* \"#utility.yul\":13618:13619   */\n      0x00\n        /* \"#utility.yul\":13607:13616   */\n      dup4\n        /* \"#utility.yul\":13603:13620   */\n      add\n        /* \"#utility.yul\":13596:13643   */\n      mstore\n        /* \"#utility.yul\":13660:13791   */\n      tag_283\n        /* \"#utility.yul\":13786:13790   */\n      dup2\n        /* \"#utility.yul\":13660:13791   */\n      tag_205\n      jump\t// in\n    tag_283:\n        /* \"#utility.yul\":13652:13791   */\n      swap1\n      pop\n        /* \"#utility.yul\":13550:13798   */\n      swap2\n      swap1\n      pop\n      jump\t// out\n        /* \"#utility.yul\":13804:14223   */\n    tag_93:\n        /* \"#utility.yul\":13970:13974   */\n      0x00\n        /* \"#utility.yul\":14008:14010   */\n      0x20\n        /* \"#utility.yul\":13997:14006   */\n      dup3\n        /* \"#utility.yul\":13993:14011   */\n      add\n        /* \"#utility.yul\":13985:14011   */\n      swap1\n      pop\n        /* \"#utility.yul\":14057:14066   */\n      dup2\n        /* \"#utility.yul\":14051:14055   */\n      dup2\n        /* \"#utility.yul\":14047:14067   */\n      sub\n        /* \"#utility.yul\":14043:14044   */\n      0x00\n        /* \"#utility.yul\":14032:14041   */\n      dup4\n        /* \"#utility.yul\":14028:14045   */\n      add\n        /* \"#utility.yul\":14021:14068   */\n      mstore\n        /* \"#utility.yul\":14085:14216   */\n      tag_285\n        /* \"#utility.yul\":14211:14215   */\n      dup2\n        /* \"#utility.yul\":14085:14216   */\n      tag_210\n      jump\t// in\n    tag_285:\n        /* \"#utility.yul\":14077:14216   */\n      swap1\n      pop\n        /* \"#utility.yul\":13975:14223   */\n      swap2\n      swap1\n      pop\n      jump\t// out\n        /* \"#utility.yul\":14229:14648   */\n    tag_76:\n        /* \"#utility.yul\":14395:14399   */\n      0x00\n        /* \"#utility.yul\":14433:14435   */\n      0x20\n        /* \"#utility.yul\":14422:14431   */\n      dup3\n        /* \"#utility.yul\":14418:14436   */\n      add\n        /* \"#utility.yul\":14410:14436   */\n      swap1\n      pop\n        /* \"#utility.yul\":14482:14491   */\n      dup2\n        /* \"#utility.yul\":14476:14480   */\n      dup2\n        /* \"#utility.yul\":14472:14492   */\n      sub\n        /* \"#utility.yul\":14468:14469   */\n      0x00\n        /* \"#utility.yul\":14457:14466   */\n      dup4\n        /* \"#utility.yul\":14453:14470   */\n      add\n        /* \"#utility.yul\":14446:14493   */\n      mstore\n        /* \"#utility.yul\":14510:14641   */\n      tag_287\n        /* \"#utility.yul\":14636:14640   */\n      dup2\n        /* \"#utility.yul\":14510:14641   */\n      tag_215\n      jump\t// in\n    tag_287:\n        /* \"#utility.yul\":14502:14641   */\n      swap1\n      pop\n        /* \"#utility.yul\":14400:14648   */\n      swap2\n      swap1\n      pop\n      jump\t// out\n        /* \"#utility.yul\":14654:15073   */\n    tag_34:\n        /* \"#utility.yul\":14820:14824   */\n      0x00\n        /* \"#utility.yul\":14858:14860   */\n      0x20\n        /* \"#utility.yul\":14847:14856   */\n      dup3\n        /* \"#utility.yul\":14843:14861   */\n      add\n        /* \"#utility.yul\":14835:14861   */\n      swap1\n      pop\n        /* \"#utility.yul\":14907:14916   */\n      dup2\n        /* \"#utility.yul\":14901:14905   */\n      dup2\n        /* \"#utility.yul\":14897:14917   */\n      sub\n        /* \"#utility.yul\":14893:14894   */\n      0x00\n        /* \"#utility.yul\":14882:14891   */\n      dup4\n        /* \"#utility.yul\":14878:14895   */\n      add\n        /* \"#utility.yul\":14871:14918   */\n      mstore\n        /* \"#utility.yul\":14935:15066   */\n      tag_289\n        /* \"#utility.yul\":15061:15065   */\n      dup2\n        /* \"#utility.yul\":14935:15066   */\n      tag_220\n      jump\t// in\n    tag_289:\n        /* \"#utility.yul\":14927:15066   */\n      swap1\n      pop\n        /* \"#utility.yul\":14825:15073   */\n      swap2\n      swap1\n      pop\n      jump\t// out\n        /* \"#utility.yul\":15079:15498   */\n    tag_90:\n        /* \"#utility.yul\":15245:15249   */\n      0x00\n        /* \"#utility.yul\":15283:15285   */\n      0x20\n        /* \"#utility.yul\":15272:15281   */\n      dup3\n        /* \"#utility.yul\":15268:15286   */\n      add\n        /* \"#utility.yul\":15260:15286   */\n      swap1\n      pop\n        /* \"#utility.yul\":15332:15341   */\n      dup2\n        /* \"#utility.yul\":15326:15330   */\n      dup2\n        /* \"#utility.yul\":15322:15342   */\n      sub\n        /* \"#utility.yul\":15318:15319   */\n      0x00\n        /* \"#utility.yul\":15307:15316   */\n      dup4\n        /* \"#utility.yul\":15303:15320   */\n      add\n        /* \"#utility.yul\":15296:15343   */\n      mstore\n        /* \"#utility.yul\":15360:15491   */\n      tag_291\n        /* \"#utility.yul\":15486:15490   */\n      dup2\n        /* \"#utility.yul\":15360:15491   */\n      tag_225\n      jump\t// in\n    tag_291:\n        /* \"#utility.yul\":15352:15491   */\n      swap1\n      pop\n        /* \"#utility.yul\":15250:15498   */\n      swap2\n      swap1\n      pop\n      jump\t// out\n        /* \"#utility.yul\":15504:15923   */\n    tag_69:\n        /* \"#utility.yul\":15670:15674   */\n      0x00\n        /* \"#utility.yul\":15708:15710   */\n      0x20\n        /* \"#utility.yul\":15697:15706   */\n      dup3\n        /* \"#utility.yul\":15693:15711   */\n      add\n        /* \"#utility.yul\":15685:15711   */\n      swap1\n      pop\n        /* \"#utility.yul\":15757:15766   */\n      dup2\n        /* \"#utility.yul\":15751:15755   */\n      dup2\n        /* \"#utility.yul\":15747:15767   */\n      sub\n        /* \"#utility.yul\":15743:15744   */\n      0x00\n        /* \"#utility.yul\":15732:15741   */\n      dup4\n        /* \"#utility.yul\":15728:15745   */\n      add\n        /* \"#utility.yul\":15721:15768   */\n      mstore\n        /* \"#utility.yul\":15785:15916   */\n      tag_293\n        /* \"#utility.yul\":15911:15915   */\n      dup2\n        /* \"#utility.yul\":15785:15916   */\n      tag_230\n      jump\t// in\n    tag_293:\n        /* \"#utility.yul\":15777:15916   */\n      swap1\n      pop\n        /* \"#utility.yul\":15675:15923   */\n      swap2\n      swap1\n      pop\n      jump\t// out\n        /* \"#utility.yul\":15929:16348   */\n    tag_79:\n        /* \"#utility.yul\":16095:16099   */\n      0x00\n        /* \"#utility.yul\":16133:16135   */\n      0x20\n        /* \"#utility.yul\":16122:16131   */\n      dup3\n        /* \"#utility.yul\":16118:16136   */\n      add\n        /* \"#utility.yul\":16110:16136   */\n      swap1\n      pop\n        /* \"#utility.yul\":16182:16191   */\n      dup2\n        /* \"#utility.yul\":16176:16180   */\n      dup2\n        /* \"#utility.yul\":16172:16192   */\n      sub\n        /* \"#utility.yul\":16168:16169   */\n      0x00\n        /* \"#utility.yul\":16157:16166   */\n      dup4\n        /* \"#utility.yul\":16153:16170   */\n      add\n        /* \"#utility.yul\":16146:16193   */\n      mstore\n        /* \"#utility.yul\":16210:16341   */\n      tag_295\n        /* \"#utility.yul\":16336:16340   */\n      dup2\n        /* \"#utility.yul\":16210:16341   */\n      tag_235\n      jump\t// in\n    tag_295:\n        /* \"#utility.yul\":16202:16341   */\n      swap1\n      pop\n        /* \"#utility.yul\":16100:16348   */\n      swap2\n      swap1\n      pop\n      jump\t// out\n        /* \"#utility.yul\":16354:16796   */\n    tag_54:\n        /* \"#utility.yul\":16503:16507   */\n      0x00\n        /* \"#utility.yul\":16541:16543   */\n      0x60\n        /* \"#utility.yul\":16530:16539   */\n      dup3\n        /* \"#utility.yul\":16526:16544   */\n      add\n        /* \"#utility.yul\":16518:16544   */\n      swap1\n      pop\n        /* \"#utility.yul\":16554:16625   */\n      tag_297\n        /* \"#utility.yul\":16622:16623   */\n      0x00\n        /* \"#utility.yul\":16611:16620   */\n      dup4\n        /* \"#utility.yul\":16607:16624   */\n      add\n        /* \"#utility.yul\":16598:16604   */\n      dup7\n        /* \"#utility.yul\":16554:16625   */\n      tag_240\n      jump\t// in\n    tag_297:\n        /* \"#utility.yul\":16635:16707   */\n      tag_298\n        /* \"#utility.yul\":16703:16705   */\n      0x20\n        /* \"#utility.yul\":16692:16701   */\n      dup4\n        /* \"#utility.yul\":16688:16706   */\n      add\n        /* \"#utility.yul\":16679:16685   */\n      dup6\n        /* \"#utility.yul\":16635:16707   */\n      tag_162\n      jump\t// in\n    tag_298:\n        /* \"#utility.yul\":16717:16789   */\n      tag_299\n        /* \"#utility.yul\":16785:16787   */\n      0x40\n        /* \"#utility.yul\":16774:16783   */\n      dup4\n        /* \"#utility.yul\":16770:16788   */\n      add\n        /* \"#utility.yul\":16761:16767   */\n      dup5\n        /* \"#utility.yul\":16717:16789   */\n      tag_240\n      jump\t// in\n    tag_299:\n        /* \"#utility.yul\":16508:16796   */\n      swap5\n      swap4\n      pop\n      pop\n      pop\n      pop\n      jump\t// out\n        /* \"#utility.yul\":16883:16981   */\n    tag_174:\n        /* \"#utility.yul\":16934:16940   */\n      0x00\n        /* \"#utility.yul\":16968:16973   */\n      dup2\n        /* \"#utility.yul\":16962:16974   */\n      mload\n        /* \"#utility.yul\":16952:16974   */\n      swap1\n      pop\n        /* \"#utility.yul\":16941:16981   */\n      swap2\n      swap1\n      pop\n      jump\t// out\n        /* \"#utility.yul\":16987:17134   */\n    tag_176:\n        /* \"#utility.yul\":17088:17099   */\n      0x00\n        /* \"#utility.yul\":17125:17128   */\n      dup2\n        /* \"#utility.yul\":17110:17128   */\n      swap1\n      pop\n        /* \"#utility.yul\":17100:17134   */\n      swap3\n      swap2\n      pop\n      pop\n      jump\t// out\n        /* \"#utility.yul\":17140:17309   */\n    tag_182:\n        /* \"#utility.yul\":17224:17235   */\n      0x00\n        /* \"#utility.yul\":17258:17264   */\n      dup3\n        /* \"#utility.yul\":17253:17256   */\n      dup3\n        /* \"#utility.yul\":17246:17265   */\n      mstore\n        /* \"#utility.yul\":17298:17302   */\n      0x20\n        /* \"#utility.yul\":17293:17296   */\n      dup3\n        /* \"#utility.yul\":17289:17303   */\n      add\n        /* \"#utility.yul\":17274:17303   */\n      swap1\n      pop\n        /* \"#utility.yul\":17236:17309   */\n      swap3\n      swap2\n      pop\n      pop\n      jump\t// out\n        /* \"#utility.yul\":17315:17411   */\n    tag_152:\n        /* \"#utility.yul\":17352:17359   */\n      0x00\n        /* \"#utility.yul\":17381:17405   */\n      tag_306\n        /* \"#utility.yul\":17399:17404   */\n      dup3\n        /* \"#utility.yul\":17381:17405   */\n      tag_307\n      jump\t// in\n    tag_306:\n        /* \"#utility.yul\":17370:17405   */\n      swap1\n      pop\n        /* \"#utility.yul\":17360:17411   */\n      swap2\n      swap1\n      pop\n      jump\t// out\n        /* \"#utility.yul\":17417:17521   */\n    tag_147:\n        /* \"#utility.yul\":17462:17469   */\n      0x00\n        /* \"#utility.yul\":17491:17515   */\n      tag_309\n        /* \"#utility.yul\":17509:17514   */\n      dup3\n        /* \"#utility.yul\":17491:17515   */\n      tag_307\n      jump\t// in\n    tag_309:\n        /* \"#utility.yul\":17480:17515   */\n      swap1\n      pop\n        /* \"#utility.yul\":17470:17521   */\n      swap2\n      swap1\n      pop\n      jump\t// out\n        /* \"#utility.yul\":17527:17617   */\n    tag_161:\n        /* \"#utility.yul\":17561:17568   */\n      0x00\n        /* \"#utility.yul\":17604:17609   */\n      dup2\n        /* \"#utility.yul\":17597:17610   */\n      iszero\n        /* \"#utility.yul\":17590:17611   */\n      iszero\n        /* \"#utility.yul\":17579:17611   */\n      swap1\n      pop\n        /* \"#utility.yul\":17569:17617   */\n      swap2\n      swap1\n      pop\n      jump\t// out\n        /* \"#utility.yul\":17623:17700   */\n    tag_165:\n        /* \"#utility.yul\":17660:17667   */\n      0x00\n        /* \"#utility.yul\":17689:17694   */\n      dup2\n        /* \"#utility.yul\":17678:17694   */\n      swap1\n      pop\n        /* \"#utility.yul\":17668:17700   */\n      swap2\n      swap1\n      pop\n      jump\t// out\n        /* \"#utility.yul\":17706:17832   */\n    tag_307:\n        /* \"#utility.yul\":17743:17750   */\n      0x00\n        /* \"#utility.yul\":17783:17825   */\n      0xffffffffffffffffffffffffffffffffffffffff\n        /* \"#utility.yul\":17776:17781   */\n      dup3\n        /* \"#utility.yul\":17772:17826   */\n      and\n        /* \"#utility.yul\":17761:17826   */\n      swap1\n      pop\n        /* \"#utility.yul\":17751:17832   */\n      swap2\n      swap1\n      pop\n      jump\t// out\n        /* \"#utility.yul\":17838:17915   */\n    tag_243:\n        /* \"#utility.yul\":17875:17882   */\n      0x00\n        /* \"#utility.yul\":17904:17909   */\n      dup2\n        /* \"#utility.yul\":17893:17909   */\n      swap1\n      pop\n        /* \"#utility.yul\":17883:17915   */\n      swap2\n      swap1\n      pop\n      jump\t// out\n        /* \"#utility.yul\":17921:18228   */\n    tag_178:\n        /* \"#utility.yul\":17989:17990   */\n      0x00\n        /* \"#utility.yul\":17999:18112   */\n    tag_315:\n        /* \"#utility.yul\":18013:18019   */\n      dup4\n        /* \"#utility.yul\":18010:18011   */\n      dup2\n        /* \"#utility.yul\":18007:18020   */\n      lt\n        /* \"#utility.yul\":17999:18112   */\n      iszero\n      tag_317\n      jumpi\n        /* \"#utility.yul\":18098:18099   */\n      dup1\n        /* \"#utility.yul\":18093:18096   */\n      dup3\n        /* \"#utility.yul\":18089:18100   */\n      add\n        /* \"#utility.yul\":18083:18101   */\n      mload\n        /* \"#utility.yul\":18079:18080   */\n      dup2\n        /* \"#utility.yul\":18074:18077   */\n      dup5\n        /* \"#utility.yul\":18070:18081   */\n      add\n        /* \"#utility.yul\":18063:18102   */\n      mstore\n        /* \"#utility.yul\":18035:18037   */\n      0x20\n        /* \"#utility.yul\":18032:18033   */\n      dup2\n        /* \"#utility.yul\":18028:18038   */\n      add\n        /* \"#utility.yul\":18023:18038   */\n      swap1\n      pop\n        /* \"#utility.yul\":17999:18112   */\n      jump(tag_315)\n    tag_317:\n        /* \"#utility.yul\":18130:18136   */\n      dup4\n        /* \"#utility.yul\":18127:18128   */\n      dup2\n        /* \"#utility.yul\":18124:18137   */\n      gt\n        /* \"#utility.yul\":18121:18123   */\n      iszero\n      tag_318\n      jumpi\n        /* \"#utility.yul\":18210:18211   */\n      0x00\n        /* \"#utility.yul\":18201:18207   */\n      dup5\n        /* \"#utility.yul\":18196:18199   */\n      dup5\n        /* \"#utility.yul\":18192:18208   */\n      add\n        /* \"#utility.yul\":18185:18212   */\n      mstore\n        /* \"#utility.yul\":18121:18123   */\n    tag_318:\n        /* \"#utility.yul\":17970:18228   */\n      pop\n      pop\n      pop\n      pop\n      jump\t// out\n        /* \"#utility.yul\":18234:18334   */\n    tag_157:\n        /* \"#utility.yul\":18273:18280   */\n      0x00\n        /* \"#utility.yul\":18302:18328   */\n      tag_320\n        /* \"#utility.yul\":18322:18327   */\n      dup3\n        /* \"#utility.yul\":18302:18328   */\n      tag_321\n      jump\t// in\n    tag_320:\n        /* \"#utility.yul\":18291:18328   */\n      swap1\n      pop\n        /* \"#utility.yul\":18281:18334   */\n      swap2\n      swap1\n      pop\n      jump\t// out\n        /* \"#utility.yul\":18340:18448   */\n    tag_148:\n        /* \"#utility.yul\":18387:18394   */\n      0x00\n        /* \"#utility.yul\":18416:18442   */\n      tag_323\n        /* \"#utility.yul\":18436:18441   */\n      dup3\n        /* \"#utility.yul\":18416:18442   */\n      tag_321\n      jump\t// in\n    tag_323:\n        /* \"#utility.yul\":18405:18442   */\n      swap1\n      pop\n        /* \"#utility.yul\":18395:18448   */\n      swap2\n      swap1\n      pop\n      jump\t// out\n        /* \"#utility.yul\":18454:18533   */\n    tag_170:\n        /* \"#utility.yul\":18493:18500   */\n      0x00\n        /* \"#utility.yul\":18522:18527   */\n      dup2\n        /* \"#utility.yul\":18511:18527   */\n      swap1\n      pop\n        /* \"#utility.yul\":18501:18533   */\n      swap2\n      swap1\n      pop\n      jump\t// out\n        /* \"#utility.yul\":18539:18633   */\n    tag_321:\n        /* \"#utility.yul\":18578:18585   */\n      0x00\n        /* \"#utility.yul\":18607:18627   */\n      tag_326\n        /* \"#utility.yul\":18621:18626   */\n      dup3\n        /* \"#utility.yul\":18607:18627   */\n      tag_327\n      jump\t// in\n    tag_326:\n        /* \"#utility.yul\":18596:18627   */\n      swap1\n      pop\n        /* \"#utility.yul\":18586:18633   */\n      swap2\n      swap1\n      pop\n      jump\t// out\n        /* \"#utility.yul\":18639:18718   */\n    tag_248:\n        /* \"#utility.yul\":18678:18685   */\n      0x00\n        /* \"#utility.yul\":18707:18712   */\n      dup2\n        /* \"#utility.yul\":18696:18712   */\n      swap1\n      pop\n        /* \"#utility.yul\":18686:18718   */\n      swap2\n      swap1\n      pop\n      jump\t// out\n        /* \"#utility.yul\":18847:18964   */\n    tag_126:\n        /* \"#utility.yul\":18956:18957   */\n      0x00\n        /* \"#utility.yul\":18953:18954   */\n      dup1\n        /* \"#utility.yul\":18946:18958   */\n      revert\n        /* \"#utility.yul\":18970:19064   */\n    tag_327:\n        /* \"#utility.yul\":19003:19011   */\n      0x00\n        /* \"#utility.yul\":19051:19056   */\n      dup2\n        /* \"#utility.yul\":19047:19049   */\n      0x60\n        /* \"#utility.yul\":19043:19057   */\n      shl\n        /* \"#utility.yul\":19022:19057   */\n      swap1\n      pop\n        /* \"#utility.yul\":19012:19064   */\n      swap2\n      swap1\n      pop\n      jump\t// out\n        /* \"#utility.yul\":19070:19292   */\n    tag_184:\n        /* \"#utility.yul\":19210:19244   */\n      0x74696d656c6f636b2074696d65206d75737420626520696e2074686520667574\n        /* \"#utility.yul\":19206:19207   */\n      0x00\n        /* \"#utility.yul\":19198:19204   */\n      dup3\n        /* \"#utility.yul\":19194:19208   */\n      add\n        /* \"#utility.yul\":19187:19245   */\n      mstore\n        /* \"#utility.yul\":19279:19284   */\n      0x7572650000000000000000000000000000000000000000000000000000000000\n        /* \"#utility.yul\":19274:19276   */\n      0x20\n        /* \"#utility.yul\":19266:19272   */\n      dup3\n        /* \"#utility.yul\":19262:19277   */\n      add\n        /* \"#utility.yul\":19255:19285   */\n      mstore\n        /* \"#utility.yul\":19176:19292   */\n      pop\n      jump\t// out\n        /* \"#utility.yul\":19298:19474   */\n    tag_189:\n        /* \"#utility.yul\":19438:19466   */\n      0x776974686472617761626c653a206e6f74207265636569766572000000000000\n        /* \"#utility.yul\":19434:19435   */\n      0x00\n        /* \"#utility.yul\":19426:19432   */\n      dup3\n        /* \"#utility.yul\":19422:19436   */\n      add\n        /* \"#utility.yul\":19415:19467   */\n      mstore\n        /* \"#utility.yul\":19404:19474   */\n      pop\n      jump\t// out\n        /* \"#utility.yul\":19480:19655   */\n    tag_194:\n        /* \"#utility.yul\":19620:19647   */\n      0x636f6e7472616374496420646f6573206e6f7420657869737400000000000000\n        /* \"#utility.yul\":19616:19617   */\n      0x00\n        /* \"#utility.yul\":19608:19614   */\n      dup3\n        /* \"#utility.yul\":19604:19618   */\n      add\n        /* \"#utility.yul\":19597:19648   */\n      mstore\n        /* \"#utility.yul\":19586:19655   */\n      pop\n      jump\t// out\n        /* \"#utility.yul\":19661:19840   */\n    tag_199:\n        /* \"#utility.yul\":19801:19832   */\n      0x726566756e6461626c653a20616c72656164792077697468647261776e000000\n        /* \"#utility.yul\":19797:19798   */\n      0x00\n        /* \"#utility.yul\":19789:19795   */\n      dup3\n        /* \"#utility.yul\":19785:19799   */\n      add\n        /* \"#utility.yul\":19778:19833   */\n      mstore\n        /* \"#utility.yul\":19767:19840   */\n      pop\n      jump\t// out\n        /* \"#utility.yul\":19846:20019   */\n    tag_204:\n        /* \"#utility.yul\":19986:20011   */\n      0x436f6e747261637420616c726561647920657869737473000000000000000000\n        /* \"#utility.yul\":19982:19983   */\n      0x00\n        /* \"#utility.yul\":19974:19980   */\n      dup3\n        /* \"#utility.yul\":19970:19984   */\n      add\n        /* \"#utility.yul\":19963:20012   */\n      mstore\n        /* \"#utility.yul\":19952:20019   */\n      pop\n      jump\t// out\n        /* \"#utility.yul\":20025:20247   */\n    tag_209:\n        /* \"#utility.yul\":20165:20199   */\n      0x726566756e6461626c653a2074696d656c6f636b206e6f742079657420706173\n        /* \"#utility.yul\":20161:20162   */\n      0x00\n        /* \"#utility.yul\":20153:20159   */\n      dup3\n        /* \"#utility.yul\":20149:20163   */\n      add\n        /* \"#utility.yul\":20142:20200   */\n      mstore\n        /* \"#utility.yul\":20234:20239   */\n      0x7365640000000000000000000000000000000000000000000000000000000000\n        /* \"#utility.yul\":20229:20231   */\n      0x20\n        /* \"#utility.yul\":20221:20227   */\n      dup3\n        /* \"#utility.yul\":20217:20232   */\n      add\n        /* \"#utility.yul\":20210:20240   */\n      mstore\n        /* \"#utility.yul\":20131:20247   */\n      pop\n      jump\t// out\n        /* \"#utility.yul\":20253:20431   */\n    tag_214:\n        /* \"#utility.yul\":20393:20423   */\n      0x726566756e6461626c653a20616c726561647920726566756e64656400000000\n        /* \"#utility.yul\":20389:20390   */\n      0x00\n        /* \"#utility.yul\":20381:20387   */\n      dup3\n        /* \"#utility.yul\":20377:20391   */\n      add\n        /* \"#utility.yul\":20370:20424   */\n      mstore\n        /* \"#utility.yul\":20359:20431   */\n      pop\n      jump\t// out\n        /* \"#utility.yul\":20437:20618   */\n    tag_219:\n        /* \"#utility.yul\":20577:20610   */\n      0x776974686472617761626c653a20616c72656164792077697468647261776e00\n        /* \"#utility.yul\":20573:20574   */\n      0x00\n        /* \"#utility.yul\":20565:20571   */\n      dup3\n        /* \"#utility.yul\":20561:20575   */\n      add\n        /* \"#utility.yul\":20554:20611   */\n      mstore\n        /* \"#utility.yul\":20543:20618   */\n      pop\n      jump\t// out\n        /* \"#utility.yul\":20624:20795   */\n    tag_224:\n        /* \"#utility.yul\":20764:20787   */\n      0x6d73672e76616c7565206d757374206265203e20300000000000000000000000\n        /* \"#utility.yul\":20760:20761   */\n      0x00\n        /* \"#utility.yul\":20752:20758   */\n      dup3\n        /* \"#utility.yul\":20748:20762   */\n      add\n        /* \"#utility.yul\":20741:20788   */\n      mstore\n        /* \"#utility.yul\":20730:20795   */\n      pop\n      jump\t// out\n        /* \"#utility.yul\":20801:20973   */\n    tag_229:\n        /* \"#utility.yul\":20941:20965   */\n      0x726566756e6461626c653a206e6f742073656e64657200000000000000000000\n        /* \"#utility.yul\":20937:20938   */\n      0x00\n        /* \"#utility.yul\":20929:20935   */\n      dup3\n        /* \"#utility.yul\":20925:20939   */\n      add\n        /* \"#utility.yul\":20918:20966   */\n      mstore\n        /* \"#utility.yul\":20907:20973   */\n      pop\n      jump\t// out\n        /* \"#utility.yul\":20979:21157   */\n    tag_234:\n        /* \"#utility.yul\":21119:21149   */\n      0x686173686c6f636b206861736820646f6573206e6f74206d6174636800000000\n        /* \"#utility.yul\":21115:21116   */\n      0x00\n        /* \"#utility.yul\":21107:21113   */\n      dup3\n        /* \"#utility.yul\":21103:21117   */\n      add\n        /* \"#utility.yul\":21096:21150   */\n      mstore\n        /* \"#utility.yul\":21085:21157   */\n      pop\n      jump\t// out\n        /* \"#utility.yul\":21163:21399   */\n    tag_239:\n        /* \"#utility.yul\":21303:21337   */\n      0x776974686472617761626c653a2074696d656c6f636b2074696d65206d757374\n        /* \"#utility.yul\":21299:21300   */\n      0x00\n        /* \"#utility.yul\":21291:21297   */\n      dup3\n        /* \"#utility.yul\":21287:21301   */\n      add\n        /* \"#utility.yul\":21280:21338   */\n      mstore\n        /* \"#utility.yul\":21372:21391   */\n      0x20626520696e2074686520667574757265000000000000000000000000000000\n        /* \"#utility.yul\":21367:21369   */\n      0x20\n        /* \"#utility.yul\":21359:21365   */\n      dup3\n        /* \"#utility.yul\":21355:21370   */\n      add\n        /* \"#utility.yul\":21348:21392   */\n      mstore\n        /* \"#utility.yul\":21269:21399   */\n      pop\n      jump\t// out\n        /* \"#utility.yul\":21405:21543   */\n    tag_111:\n        /* \"#utility.yul\":21486:21518   */\n      tag_346\n        /* \"#utility.yul\":21512:21517   */\n      dup2\n        /* \"#utility.yul\":21486:21518   */\n      tag_147\n      jump\t// in\n    tag_346:\n        /* \"#utility.yul\":21479:21484   */\n      dup2\n        /* \"#utility.yul\":21476:21519   */\n      eq\n        /* \"#utility.yul\":21466:21468   */\n      tag_347\n      jumpi\n        /* \"#utility.yul\":21533:21534   */\n      0x00\n        /* \"#utility.yul\":21530:21531   */\n      dup1\n        /* \"#utility.yul\":21523:21535   */\n      revert\n        /* \"#utility.yul\":21466:21468   */\n    tag_347:\n        /* \"#utility.yul\":21456:21543   */\n      pop\n      jump\t// out\n        /* \"#utility.yul\":21549:21671   */\n    tag_115:\n        /* \"#utility.yul\":21622:21646   */\n      tag_349\n        /* \"#utility.yul\":21640:21645   */\n      dup2\n        /* \"#utility.yul\":21622:21646   */\n      tag_165\n      jump\t// in\n    tag_349:\n        /* \"#utility.yul\":21615:21620   */\n      dup2\n        /* \"#utility.yul\":21612:21647   */\n      eq\n        /* \"#utility.yul\":21602:21604   */\n      tag_350\n      jumpi\n        /* \"#utility.yul\":21661:21662   */\n      0x00\n        /* \"#utility.yul\":21658:21659   */\n      dup1\n        /* \"#utility.yul\":21651:21663   */\n      revert\n        /* \"#utility.yul\":21602:21604   */\n    tag_350:\n        /* \"#utility.yul\":21592:21671   */\n      pop\n      jump\t// out\n        /* \"#utility.yul\":21677:21799   */\n    tag_122:\n        /* \"#utility.yul\":21750:21774   */\n      tag_352\n        /* \"#utility.yul\":21768:21773   */\n      dup2\n        /* \"#utility.yul\":21750:21774   */\n      tag_243\n      jump\t// in\n    tag_352:\n        /* \"#utility.yul\":21743:21748   */\n      dup2\n        /* \"#utility.yul\":21740:21775   */\n      eq\n        /* \"#utility.yul\":21730:21732   */\n      tag_353\n      jumpi\n        /* \"#utility.yul\":21789:21790   */\n      0x00\n        /* \"#utility.yul\":21786:21787   */\n      dup1\n        /* \"#utility.yul\":21779:21791   */\n      revert\n        /* \"#utility.yul\":21730:21732   */\n    tag_353:\n        /* \"#utility.yul\":21720:21799   */\n      pop\n      jump\t// out\n\n    auxdata: 0xa2646970667358221220bf3be1759f751d1d15a768e4fa07fc4cca15bc970647deaf5754597a336bddc164736f6c63430008050033\n}\n","bytecode":{"linkReferences":{},"object":"608060405234801561001057600080fd5b506116c6806100206000396000f3fe60806040526004361061003f5760003560e01c8063335ef5bd1461004457806363615149146100745780637249fbb6146100b1578063e16c7d98146100ee575b600080fd5b61005e60048036038101906100599190610c7d565b610132565b60405161006b9190611101565b60405180910390f35b34801561008057600080fd5b5061009b60048036038101906100969190610d2a565b610467565b6040516100a891906110e6565b60405180910390f35b3480156100bd57600080fd5b506100d860048036038101906100d39190610cd0565b6107c4565b6040516100e591906110e6565b60405180910390f35b3480156100fa57600080fd5b5061011560048036038101906101109190610cd0565b610ab8565b604051610129989796959493929190611068565b60405180910390f35b6000803411610176576040517f08c379a000000000000000000000000000000000000000000000000000000000815260040161016d9061121c565b60405180910390fd5b814281116101b9576040517f08c379a00000000000000000000000000000000000000000000000000000000081526004016101b09061111c565b60405180910390fd5b600233863487876040516020016101d4959493929190610fd7565b6040516020818303038152906040526040516101f09190611051565b602060405180830381855afa15801561020d573d6000803e3d6000fd5b5050506040513d601f19601f820116820180604052508101906102309190610cfd565b915061023b82610bbb565b1561027b576040517f08c379a00000000000000000000000000000000000000000000000000000000081526004016102729061119c565b60405180910390fd5b6040518061010001604052803373ffffffffffffffffffffffffffffffffffffffff1681526020018673ffffffffffffffffffffffffffffffffffffffff1681526020013481526020018581526020018481526020016000151581526020016000151581526020016000801b81525060008084815260200190815260200160002060008201518160000160006101000a81548173ffffffffffffffffffffffffffffffffffffffff021916908373ffffffffffffffffffffffffffffffffffffffff16021790555060208201518160010160006101000a81548173ffffffffffffffffffffffffffffffffffffffff021916908373ffffffffffffffffffffffffffffffffffffffff16021790555060408201518160020155606082015181600301556080820151816004015560a08201518160050160006101000a81548160ff02191690831515021790555060c08201518160050160016101000a81548160ff02191690831515021790555060e082015181600601559050508473ffffffffffffffffffffffffffffffffffffffff163373ffffffffffffffffffffffffffffffffffffffff16837f329a8316ed9c3b2299597538371c2944c5026574e803b1ec31d6113e1cd67bde3488886040516104579392919061129c565b60405180910390a4509392505050565b60008261047381610bbb565b6104b2576040517f08c379a00000000000000000000000000000000000000000000000000000000081526004016104a99061115c565b60405180910390fd5b83836002816040516020016104c79190611036565b6040516020818303038152906040526040516104e39190611051565b602060405180830381855afa158015610500573d6000803e3d6000fd5b5050506040513d601f19601f820116820180604052508101906105239190610cfd565b6000808481526020019081526020016000206003015414610579576040517f08c379a00000000000000000000000000000000000000000000000000000000081526004016105709061125c565b60405180910390fd5b853373ffffffffffffffffffffffffffffffffffffffff1660008083815260200190815260200160002060010160009054906101000a900473ffffffffffffffffffffffffffffffffffffffff1673ffffffffffffffffffffffffffffffffffffffff161461061d576040517f08c379a00000000000000000000000000000000000000000000000000000000081526004016106149061113c565b60405180910390fd5b6000151560008083815260200190815260200160002060050160009054906101000a900460ff16151514610686576040517f08c379a000000000000000000000000000000000000000000000000000000000815260040161067d906111fc565b60405180910390fd5b4260008083815260200190815260200160002060040154116106dd576040517f08c379a00000000000000000000000000000000000000000000000000000000081526004016106d49061127c565b60405180910390fd5b6000806000898152602001908152602001600020905086816006018190555060018160050160006101000a81548160ff0219169083151502179055508060010160009054906101000a900473ffffffffffffffffffffffffffffffffffffffff1673ffffffffffffffffffffffffffffffffffffffff166108fc82600201549081150290604051600060405180830381858888f19350505050158015610787573d6000803e3d6000fd5b50877fd6fd4c8e45bf0c70693141c7ce46451b6a6a28ac8386fca2ba914044e0e2391660405160405180910390a260019550505050505092915050565b6000816107d081610bbb565b61080f576040517f08c379a00000000000000000000000000000000000000000000000000000000081526004016108069061115c565b60405180910390fd5b823373ffffffffffffffffffffffffffffffffffffffff1660008083815260200190815260200160002060000160009054906101000a900473ffffffffffffffffffffffffffffffffffffffff1673ffffffffffffffffffffffffffffffffffffffff16146108b3576040517f08c379a00000000000000000000000000000000000000000000000000000000081526004016108aa9061123c565b60405180910390fd5b6000151560008083815260200190815260200160002060050160019054906101000a900460ff1615151461091c576040517f08c379a0000000000000000000000000000000000000000000000000000000008152600401610913906111dc565b60405180910390fd5b6000151560008083815260200190815260200160002060050160009054906101000a900460ff16151514610985576040517f08c379a000000000000000000000000000000000000000000000000000000000815260040161097c9061117c565b60405180910390fd5b426000808381526020019081526020016000206004015411156109dd576040517f08c379a00000000000000000000000000000000000000000000000000000000081526004016109d4906111bc565b60405180910390fd5b6000806000868152602001908152602001600020905060018160050160016101000a81548160ff0219169083151502179055508060000160009054906101000a900473ffffffffffffffffffffffffffffffffffffffff1673ffffffffffffffffffffffffffffffffffffffff166108fc82600201549081150290604051600060405180830381858888f19350505050158015610a7e573d6000803e3d6000fd5b50847f989b3a845197c9aec15f8982bbb30b5da714050e662a7a287bb1a94c81e2e70e60405160405180910390a260019350505050919050565b60008060008060008060008060001515610ad18a610bbb565b15151415610b06576000806000806000806000808460001b94508060001b905097509750975097509750975097509750610bb0565b60008060008b815260200190815260200160002090508060000160009054906101000a900473ffffffffffffffffffffffffffffffffffffffff168160010160009054906101000a900473ffffffffffffffffffffffffffffffffffffffff168260020154836003015484600401548560050160009054906101000a900460ff168660050160019054906101000a900460ff16876006015498509850985098509850985098509850505b919395975091939597565b60008073ffffffffffffffffffffffffffffffffffffffff1660008084815260200190815260200160002060000160009054906101000a900473ffffffffffffffffffffffffffffffffffffffff1673ffffffffffffffffffffffffffffffffffffffff1614159050919050565b600081359050610c388161164b565b92915050565b600081359050610c4d81611662565b92915050565b600081519050610c6281611662565b92915050565b600081359050610c7781611679565b92915050565b600080600060608486031215610c9657610c956113db565b5b6000610ca486828701610c29565b9350506020610cb586828701610c3e565b9250506040610cc686828701610c68565b9150509250925092565b600060208284031215610ce657610ce56113db565b5b6000610cf484828501610c3e565b91505092915050565b600060208284031215610d1357610d126113db565b5b6000610d2184828501610c53565b91505092915050565b60008060408385031215610d4157610d406113db565b5b6000610d4f85828601610c3e565b9250506020610d6085828601610c3e565b9150509250929050565b610d7b610d768261130c565b6113a3565b82525050565b610d8a816112fa565b82525050565b610da1610d9c826112fa565b611391565b82525050565b610db08161131e565b82525050565b610dbf8161132a565b82525050565b610dd6610dd18261132a565b6113b5565b82525050565b6000610de7826112d3565b610df181856112de565b9350610e0181856020860161135e565b80840191505092915050565b6000610e1a6023836112e9565b9150610e25826113ed565b604082019050919050565b6000610e3d601a836112e9565b9150610e488261143c565b602082019050919050565b6000610e606019836112e9565b9150610e6b82611465565b602082019050919050565b6000610e83601d836112e9565b9150610e8e8261148e565b602082019050919050565b6000610ea66017836112e9565b9150610eb1826114b7565b602082019050919050565b6000610ec96023836112e9565b9150610ed4826114e0565b604082019050919050565b6000610eec601c836112e9565b9150610ef78261152f565b602082019050919050565b6000610f0f601f836112e9565b9150610f1a82611558565b602082019050919050565b6000610f326015836112e9565b9150610f3d82611581565b602082019050919050565b6000610f556016836112e9565b9150610f60826115aa565b602082019050919050565b6000610f78601c836112e9565b9150610f83826115d3565b602082019050919050565b6000610f9b6031836112e9565b9150610fa6826115fc565b604082019050919050565b610fba81611354565b82525050565b610fd1610fcc82611354565b6113d1565b82525050565b6000610fe38288610d90565b601482019150610ff38287610d6a565b6014820191506110038286610fc0565b6020820191506110138285610dc5565b6020820191506110238284610fc0565b6020820191508190509695505050505050565b60006110428284610dc5565b60208201915081905092915050565b600061105d8284610ddc565b915081905092915050565b60006101008201905061107e600083018b610d81565b61108b602083018a610d81565b6110986040830189610fb1565b6110a56060830188610db6565b6110b26080830187610fb1565b6110bf60a0830186610da7565b6110cc60c0830185610da7565b6110d960e0830184610db6565b9998505050505050505050565b60006020820190506110fb6000830184610da7565b92915050565b60006020820190506111166000830184610db6565b92915050565b6000602082019050818103600083015261113581610e0d565b9050919050565b6000602082019050818103600083015261115581610e30565b9050919050565b6000602082019050818103600083015261117581610e53565b9050919050565b6000602082019050818103600083015261119581610e76565b9050919050565b600060208201905081810360008301526111b581610e99565b9050919050565b600060208201905081810360008301526111d581610ebc565b9050919050565b600060208201905081810360008301526111f581610edf565b9050919050565b6000602082019050818103600083015261121581610f02565b9050919050565b6000602082019050818103600083015261123581610f25565b9050919050565b6000602082019050818103600083015261125581610f48565b9050919050565b6000602082019050818103600083015261127581610f6b565b9050919050565b6000602082019050818103600083015261129581610f8e565b9050919050565b60006060820190506112b16000830186610fb1565b6112be6020830185610db6565b6112cb6040830184610fb1565b949350505050565b600081519050919050565b600081905092915050565b600082825260208201905092915050565b600061130582611334565b9050919050565b600061131782611334565b9050919050565b60008115159050919050565b6000819050919050565b600073ffffffffffffffffffffffffffffffffffffffff82169050919050565b6000819050919050565b60005b8381101561137c578082015181840152602081019050611361565b8381111561138b576000848401525b50505050565b600061139c826113bf565b9050919050565b60006113ae826113bf565b9050919050565b6000819050919050565b60006113ca826113e0565b9050919050565b6000819050919050565b600080fd5b60008160601b9050919050565b7f74696d656c6f636b2074696d65206d75737420626520696e207468652066757460008201527f7572650000000000000000000000000000000000000000000000000000000000602082015250565b7f776974686472617761626c653a206e6f74207265636569766572000000000000600082015250565b7f636f6e7472616374496420646f6573206e6f7420657869737400000000000000600082015250565b7f726566756e6461626c653a20616c72656164792077697468647261776e000000600082015250565b7f436f6e747261637420616c726561647920657869737473000000000000000000600082015250565b7f726566756e6461626c653a2074696d656c6f636b206e6f74207965742070617360008201527f7365640000000000000000000000000000000000000000000000000000000000602082015250565b7f726566756e6461626c653a20616c726561647920726566756e64656400000000600082015250565b7f776974686472617761626c653a20616c72656164792077697468647261776e00600082015250565b7f6d73672e76616c7565206d757374206265203e20300000000000000000000000600082015250565b7f726566756e6461626c653a206e6f742073656e64657200000000000000000000600082015250565b7f686173686c6f636b206861736820646f6573206e6f74206d6174636800000000600082015250565b7f776974686472617761626c653a2074696d656c6f636b2074696d65206d75737460008201527f20626520696e2074686520667574757265000000000000000000000000000000602082015250565b6116548161130c565b811461165f57600080fd5b50565b61166b8161132a565b811461167657600080fd5b50565b61168281611354565b811461168d57600080fd5b5056fea2646970667358221220bf3be1759f751d1d15a768e4fa07fc4cca15bc970647deaf5754597a336bddc164736f6c63430008050033","opcodes":"PUSH1 0x80 PUSH1 0x40 MSTORE CALLVALUE DUP1 ISZERO PUSH2 0x10 JUMPI PUSH1 0x0 DUP1 REVERT JUMPDEST POP PUSH2 0x16C6 DUP1 PUSH2 0x20 PUSH1 0x0 CODECOPY PUSH1 0x0 RETURN INVALID PUSH1 0x80 PUSH1 0x40 MSTORE PUSH1 0x4 CALLDATASIZE LT PUSH2 0x3F JUMPI PUSH1 0x0 CALLDATALOAD PUSH1 0xE0 SHR DUP1 PUSH4 0x335EF5BD EQ PUSH2 0x44 JUMPI DUP1 PUSH4 0x63615149 EQ PUSH2 0x74 JUMPI DUP1 PUSH4 0x7249FBB6 EQ PUSH2 0xB1 JUMPI DUP1 PUSH4 0xE16C7D98 EQ PUSH2 0xEE JUMPI JUMPDEST PUSH1 0x0 DUP1 REVERT JUMPDEST PUSH2 0x5E PUSH1 0x4 DUP1 CALLDATASIZE SUB DUP2 ADD SWAP1 PUSH2 0x59 SWAP2 SWAP1 PUSH2 0xC7D JUMP JUMPDEST PUSH2 0x132 JUMP JUMPDEST PUSH1 0x40 MLOAD PUSH2 0x6B SWAP2 SWAP1 PUSH2 0x1101 JUMP JUMPDEST PUSH1 0x40 MLOAD DUP1 SWAP2 SUB SWAP1 RETURN JUMPDEST CALLVALUE DUP1 ISZERO PUSH2 0x80 JUMPI PUSH1 0x0 DUP1 REVERT JUMPDEST POP PUSH2 0x9B PUSH1 0x4 DUP1 CALLDATASIZE SUB DUP2 ADD SWAP1 PUSH2 0x96 SWAP2 SWAP1 PUSH2 0xD2A JUMP JUMPDEST PUSH2 0x467 JUMP JUMPDEST PUSH1 0x40 MLOAD PUSH2 0xA8 SWAP2 SWAP1 PUSH2 0x10E6 JUMP JUMPDEST PUSH1 0x40 MLOAD DUP1 SWAP2 SUB SWAP1 RETURN JUMPDEST CALLVALUE DUP1 ISZERO PUSH2 0xBD JUMPI PUSH1 0x0 DUP1 REVERT JUMPDEST POP PUSH2 0xD8 PUSH1 0x4 DUP1 CALLDATASIZE SUB DUP2 ADD SWAP1 PUSH2 0xD3 SWAP2 SWAP1 PUSH2 0xCD0 JUMP JUMPDEST PUSH2 0x7C4 JUMP JUMPDEST PUSH1 0x40 MLOAD PUSH2 0xE5 SWAP2 SWAP1 PUSH2 0x10E6 JUMP JUMPDEST PUSH1 0x40 MLOAD DUP1 SWAP2 SUB SWAP1 RETURN JUMPDEST CALLVALUE DUP1 ISZERO PUSH2 0xFA JUMPI PUSH1 0x0 DUP1 REVERT JUMPDEST POP PUSH2 0x115 PUSH1 0x4 DUP1 CALLDATASIZE SUB DUP2 ADD SWAP1 PUSH2 0x110 SWAP2 SWAP1 PUSH2 0xCD0 JUMP JUMPDEST PUSH2 0xAB8 JUMP JUMPDEST PUSH1 0x40 MLOAD PUSH2 0x129 SWAP9 SWAP8 SWAP7 SWAP6 SWAP5 SWAP4 SWAP3 SWAP2 SWAP1 PUSH2 0x1068 JUMP JUMPDEST PUSH1 0x40 MLOAD DUP1 SWAP2 SUB SWAP1 RETURN JUMPDEST PUSH1 0x0 DUP1 CALLVALUE GT PUSH2 0x176 JUMPI PUSH1 0x40 MLOAD PUSH32 0x8C379A000000000000000000000000000000000000000000000000000000000 DUP2 MSTORE PUSH1 0x4 ADD PUSH2 0x16D SWAP1 PUSH2 0x121C JUMP JUMPDEST PUSH1 0x40 MLOAD DUP1 SWAP2 SUB SWAP1 REVERT JUMPDEST DUP2 TIMESTAMP DUP2 GT PUSH2 0x1B9 JUMPI PUSH1 0x40 MLOAD PUSH32 0x8C379A000000000000000000000000000000000000000000000000000000000 DUP2 MSTORE PUSH1 0x4 ADD PUSH2 0x1B0 SWAP1 PUSH2 0x111C JUMP JUMPDEST PUSH1 0x40 MLOAD DUP1 SWAP2 SUB SWAP1 REVERT JUMPDEST PUSH1 0x2 CALLER DUP7 CALLVALUE DUP8 DUP8 PUSH1 0x40 MLOAD PUSH1 0x20 ADD PUSH2 0x1D4 SWAP6 SWAP5 SWAP4 SWAP3 SWAP2 SWAP1 PUSH2 0xFD7 JUMP JUMPDEST PUSH1 0x40 MLOAD PUSH1 0x20 DUP2 DUP4 SUB SUB DUP2 MSTORE SWAP1 PUSH1 0x40 MSTORE PUSH1 0x40 MLOAD PUSH2 0x1F0 SWAP2 SWAP1 PUSH2 0x1051 JUMP JUMPDEST PUSH1 0x20 PUSH1 0x40 MLOAD DUP1 DUP4 SUB DUP2 DUP6 GAS STATICCALL ISZERO DUP1 ISZERO PUSH2 0x20D JUMPI RETURNDATASIZE PUSH1 0x0 DUP1 RETURNDATACOPY RETURNDATASIZE PUSH1 0x0 REVERT JUMPDEST POP POP POP PUSH1 0x40 MLOAD RETURNDATASIZE PUSH1 0x1F NOT PUSH1 0x1F DUP3 ADD AND DUP3 ADD DUP1 PUSH1 0x40 MSTORE POP DUP2 ADD SWAP1 PUSH2 0x230 SWAP2 SWAP1 PUSH2 0xCFD JUMP JUMPDEST SWAP2 POP PUSH2 0x23B DUP3 PUSH2 0xBBB JUMP JUMPDEST ISZERO PUSH2 0x27B JUMPI PUSH1 0x40 MLOAD PUSH32 0x8C379A000000000000000000000000000000000000000000000000000000000 DUP2 MSTORE PUSH1 0x4 ADD PUSH2 0x272 SWAP1 PUSH2 0x119C JUMP JUMPDEST PUSH1 0x40 MLOAD DUP1 SWAP2 SUB SWAP1 REVERT JUMPDEST PUSH1 0x40 MLOAD DUP1 PUSH2 0x100 ADD PUSH1 0x40 MSTORE DUP1 CALLER PUSH20 0xFFFFFFFFFFFFFFFFFFFFFFFFFFFFFFFFFFFFFFFF AND DUP2 MSTORE PUSH1 0x20 ADD DUP7 PUSH20 0xFFFFFFFFFFFFFFFFFFFFFFFFFFFFFFFFFFFFFFFF AND DUP2 MSTORE PUSH1 0x20 ADD CALLVALUE DUP2 MSTORE PUSH1 0x20 ADD DUP6 DUP2 MSTORE PUSH1 0x20 ADD DUP5 DUP2 MSTORE PUSH1 0x20 ADD PUSH1 0x0 ISZERO ISZERO DUP2 MSTORE PUSH1 0x20 ADD PUSH1 0x0 ISZERO ISZERO DUP2 MSTORE PUSH1 0x20 ADD PUSH1 0x0 DUP1 SHL DUP2 MSTORE POP PUSH1 0x0 DUP1 DUP5 DUP2 MSTORE PUSH1 0x20 ADD SWAP1 DUP2 MSTORE PUSH1 0x20 ADD PUSH1 0x0 KECCAK256 PUSH1 0x0 DUP3 ADD MLOAD DUP2 PUSH1 0x0 ADD PUSH1 0x0 PUSH2 0x100 EXP DUP2 SLOAD DUP2 PUSH20 0xFFFFFFFFFFFFFFFFFFFFFFFFFFFFFFFFFFFFFFFF MUL NOT AND SWAP1 DUP4 PUSH20 0xFFFFFFFFFFFFFFFFFFFFFFFFFFFFFFFFFFFFFFFF AND MUL OR SWAP1 SSTORE POP PUSH1 0x20 DUP3 ADD MLOAD DUP2 PUSH1 0x1 ADD PUSH1 0x0 PUSH2 0x100 EXP DUP2 SLOAD DUP2 PUSH20 0xFFFFFFFFFFFFFFFFFFFFFFFFFFFFFFFFFFFFFFFF MUL NOT AND SWAP1 DUP4 PUSH20 0xFFFFFFFFFFFFFFFFFFFFFFFFFFFFFFFFFFFFFFFF AND MUL OR SWAP1 SSTORE POP PUSH1 0x40 DUP3 ADD MLOAD DUP2 PUSH1 0x2 ADD SSTORE PUSH1 0x60 DUP3 ADD MLOAD DUP2 PUSH1 0x3 ADD SSTORE PUSH1 0x80 DUP3 ADD MLOAD DUP2 PUSH1 0x4 ADD SSTORE PUSH1 0xA0 DUP3 ADD MLOAD DUP2 PUSH1 0x5 ADD PUSH1 0x0 PUSH2 0x100 EXP DUP2 SLOAD DUP2 PUSH1 0xFF MUL NOT AND SWAP1 DUP4 ISZERO ISZERO MUL OR SWAP1 SSTORE POP PUSH1 0xC0 DUP3 ADD MLOAD DUP2 PUSH1 0x5 ADD PUSH1 0x1 PUSH2 0x100 EXP DUP2 SLOAD DUP2 PUSH1 0xFF MUL NOT AND SWAP1 DUP4 ISZERO ISZERO MUL OR SWAP1 SSTORE POP PUSH1 0xE0 DUP3 ADD MLOAD DUP2 PUSH1 0x6 ADD SSTORE SWAP1 POP POP DUP5 PUSH20 0xFFFFFFFFFFFFFFFFFFFFFFFFFFFFFFFFFFFFFFFF AND CALLER PUSH20 0xFFFFFFFFFFFFFFFFFFFFFFFFFFFFFFFFFFFFFFFF AND DUP4 PUSH32 0x329A8316ED9C3B2299597538371C2944C5026574E803B1EC31D6113E1CD67BDE CALLVALUE DUP9 DUP9 PUSH1 0x40 MLOAD PUSH2 0x457 SWAP4 SWAP3 SWAP2 SWAP1 PUSH2 0x129C JUMP JUMPDEST PUSH1 0x40 MLOAD DUP1 SWAP2 SUB SWAP1 LOG4 POP SWAP4 SWAP3 POP POP POP JUMP JUMPDEST PUSH1 0x0 DUP3 PUSH2 0x473 DUP2 PUSH2 0xBBB JUMP JUMPDEST PUSH2 0x4B2 JUMPI PUSH1 0x40 MLOAD PUSH32 0x8C379A000000000000000000000000000000000000000000000000000000000 DUP2 MSTORE PUSH1 0x4 ADD PUSH2 0x4A9 SWAP1 PUSH2 0x115C JUMP JUMPDEST PUSH1 0x40 MLOAD DUP1 SWAP2 SUB SWAP1 REVERT JUMPDEST DUP4 DUP4 PUSH1 0x2 DUP2 PUSH1 0x40 MLOAD PUSH1 0x20 ADD PUSH2 0x4C7 SWAP2 SWAP1 PUSH2 0x1036 JUMP JUMPDEST PUSH1 0x40 MLOAD PUSH1 0x20 DUP2 DUP4 SUB SUB DUP2 MSTORE SWAP1 PUSH1 0x40 MSTORE PUSH1 0x40 MLOAD PUSH2 0x4E3 SWAP2 SWAP1 PUSH2 0x1051 JUMP JUMPDEST PUSH1 0x20 PUSH1 0x40 MLOAD DUP1 DUP4 SUB DUP2 DUP6 GAS STATICCALL ISZERO DUP1 ISZERO PUSH2 0x500 JUMPI RETURNDATASIZE PUSH1 0x0 DUP1 RETURNDATACOPY RETURNDATASIZE PUSH1 0x0 REVERT JUMPDEST POP POP POP PUSH1 0x40 MLOAD RETURNDATASIZE PUSH1 0x1F NOT PUSH1 0x1F DUP3 ADD AND DUP3 ADD DUP1 PUSH1 0x40 MSTORE POP DUP2 ADD SWAP1 PUSH2 0x523 SWAP2 SWAP1 PUSH2 0xCFD JUMP JUMPDEST PUSH1 0x0 DUP1 DUP5 DUP2 MSTORE PUSH1 0x20 ADD SWAP1 DUP2 MSTORE PUSH1 0x20 ADD PUSH1 0x0 KECCAK256 PUSH1 0x3 ADD SLOAD EQ PUSH2 0x579 JUMPI PUSH1 0x40 MLOAD PUSH32 0x8C379A000000000000000000000000000000000000000000000000000000000 DUP2 MSTORE PUSH1 0x4 ADD PUSH2 0x570 SWAP1 PUSH2 0x125C JUMP JUMPDEST PUSH1 0x40 MLOAD DUP1 SWAP2 SUB SWAP1 REVERT JUMPDEST DUP6 CALLER PUSH20 0xFFFFFFFFFFFFFFFFFFFFFFFFFFFFFFFFFFFFFFFF AND PUSH1 0x0 DUP1 DUP4 DUP2 MSTORE PUSH1 0x20 ADD SWAP1 DUP2 MSTORE PUSH1 0x20 ADD PUSH1 0x0 KECCAK256 PUSH1 0x1 ADD PUSH1 0x0 SWAP1 SLOAD SWAP1 PUSH2 0x100 EXP SWAP1 DIV PUSH20 0xFFFFFFFFFFFFFFFFFFFFFFFFFFFFFFFFFFFFFFFF AND PUSH20 0xFFFFFFFFFFFFFFFFFFFFFFFFFFFFFFFFFFFFFFFF AND EQ PUSH2 0x61D JUMPI PUSH1 0x40 MLOAD PUSH32 0x8C379A000000000000000000000000000000000000000000000000000000000 DUP2 MSTORE PUSH1 0x4 ADD PUSH2 0x614 SWAP1 PUSH2 0x113C JUMP JUMPDEST PUSH1 0x40 MLOAD DUP1 SWAP2 SUB SWAP1 REVERT JUMPDEST PUSH1 0x0 ISZERO ISZERO PUSH1 0x0 DUP1 DUP4 DUP2 MSTORE PUSH1 0x20 ADD SWAP1 DUP2 MSTORE PUSH1 0x20 ADD PUSH1 0x0 KECCAK256 PUSH1 0x5 ADD PUSH1 0x0 SWAP1 SLOAD SWAP1 PUSH2 0x100 EXP SWAP1 DIV PUSH1 0xFF AND ISZERO ISZERO EQ PUSH2 0x686 JUMPI PUSH1 0x40 MLOAD PUSH32 0x8C379A000000000000000000000000000000000000000000000000000000000 DUP2 MSTORE PUSH1 0x4 ADD PUSH2 0x67D SWAP1 PUSH2 0x11FC JUMP JUMPDEST PUSH1 0x40 MLOAD DUP1 SWAP2 SUB SWAP1 REVERT JUMPDEST TIMESTAMP PUSH1 0x0 DUP1 DUP4 DUP2 MSTORE PUSH1 0x20 ADD SWAP1 DUP2 MSTORE PUSH1 0x20 ADD PUSH1 0x0 KECCAK256 PUSH1 0x4 ADD SLOAD GT PUSH2 0x6DD JUMPI PUSH1 0x40 MLOAD PUSH32 0x8C379A000000000000000000000000000000000000000000000000000000000 DUP2 MSTORE PUSH1 0x4 ADD PUSH2 0x6D4 SWAP1 PUSH2 0x127C JUMP JUMPDEST PUSH1 0x40 MLOAD DUP1 SWAP2 SUB SWAP1 REVERT JUMPDEST PUSH1 0x0 DUP1 PUSH1 0x0 DUP10 DUP2 MSTORE PUSH1 0x20 ADD SWAP1 DUP2 MSTORE PUSH1 0x20 ADD PUSH1 0x0 KECCAK256 SWAP1 POP DUP7 DUP2 PUSH1 0x6 ADD DUP2 SWAP1 SSTORE POP PUSH1 0x1 DUP2 PUSH1 0x5 ADD PUSH1 0x0 PUSH2 0x100 EXP DUP2 SLOAD DUP2 PUSH1 0xFF MUL NOT AND SWAP1 DUP4 ISZERO ISZERO MUL OR SWAP1 SSTORE POP DUP1 PUSH1 0x1 ADD PUSH1 0x0 SWAP1 SLOAD SWAP1 PUSH2 0x100 EXP SWAP1 DIV PUSH20 0xFFFFFFFFFFFFFFFFFFFFFFFFFFFFFFFFFFFFFFFF AND PUSH20 0xFFFFFFFFFFFFFFFFFFFFFFFFFFFFFFFFFFFFFFFF AND PUSH2 0x8FC DUP3 PUSH1 0x2 ADD SLOAD SWAP1 DUP2 ISZERO MUL SWAP1 PUSH1 0x40 MLOAD PUSH1 0x0 PUSH1 0x40 MLOAD DUP1 DUP4 SUB DUP2 DUP6 DUP9 DUP9 CALL SWAP4 POP POP POP POP ISZERO DUP1 ISZERO PUSH2 0x787 JUMPI RETURNDATASIZE PUSH1 0x0 DUP1 RETURNDATACOPY RETURNDATASIZE PUSH1 0x0 REVERT JUMPDEST POP DUP8 PUSH32 0xD6FD4C8E45BF0C70693141C7CE46451B6A6A28AC8386FCA2BA914044E0E23916 PUSH1 0x40 MLOAD PUSH1 0x40 MLOAD DUP1 SWAP2 SUB SWAP1 LOG2 PUSH1 0x1 SWAP6 POP POP POP POP POP POP SWAP3 SWAP2 POP POP JUMP JUMPDEST PUSH1 0x0 DUP2 PUSH2 0x7D0 DUP2 PUSH2 0xBBB JUMP JUMPDEST PUSH2 0x80F JUMPI PUSH1 0x40 MLOAD PUSH32 0x8C379A000000000000000000000000000000000000000000000000000000000 DUP2 MSTORE PUSH1 0x4 ADD PUSH2 0x806 SWAP1 PUSH2 0x115C JUMP JUMPDEST PUSH1 0x40 MLOAD DUP1 SWAP2 SUB SWAP1 REVERT JUMPDEST DUP3 CALLER PUSH20 0xFFFFFFFFFFFFFFFFFFFFFFFFFFFFFFFFFFFFFFFF AND PUSH1 0x0 DUP1 DUP4 DUP2 MSTORE PUSH1 0x20 ADD SWAP1 DUP2 MSTORE PUSH1 0x20 ADD PUSH1 0x0 KECCAK256 PUSH1 0x0 ADD PUSH1 0x0 SWAP1 SLOAD SWAP1 PUSH2 0x100 EXP SWAP1 DIV PUSH20 0xFFFFFFFFFFFFFFFFFFFFFFFFFFFFFFFFFFFFFFFF AND PUSH20 0xFFFFFFFFFFFFFFFFFFFFFFFFFFFFFFFFFFFFFFFF AND EQ PUSH2 0x8B3 JUMPI PUSH1 0x40 MLOAD PUSH32 0x8C379A000000000000000000000000000000000000000000000000000000000 DUP2 MSTORE PUSH1 0x4 ADD PUSH2 0x8AA SWAP1 PUSH2 0x123C JUMP JUMPDEST PUSH1 0x40 MLOAD DUP1 SWAP2 SUB SWAP1 REVERT JUMPDEST PUSH1 0x0 ISZERO ISZERO PUSH1 0x0 DUP1 DUP4 DUP2 MSTORE PUSH1 0x20 ADD SWAP1 DUP2 MSTORE PUSH1 0x20 ADD PUSH1 0x0 KECCAK256 PUSH1 0x5 ADD PUSH1 0x1 SWAP1 SLOAD SWAP1 PUSH2 0x100 EXP SWAP1 DIV PUSH1 0xFF AND ISZERO ISZERO EQ PUSH2 0x91C JUMPI PUSH1 0x40 MLOAD PUSH32 0x8C379A000000000000000000000000000000000000000000000000000000000 DUP2 MSTORE PUSH1 0x4 ADD PUSH2 0x913 SWAP1 PUSH2 0x11DC JUMP JUMPDEST PUSH1 0x40 MLOAD DUP1 SWAP2 SUB SWAP1 REVERT JUMPDEST PUSH1 0x0 ISZERO ISZERO PUSH1 0x0 DUP1 DUP4 DUP2 MSTORE PUSH1 0x20 ADD SWAP1 DUP2 MSTORE PUSH1 0x20 ADD PUSH1 0x0 KECCAK256 PUSH1 0x5 ADD PUSH1 0x0 SWAP1 SLOAD SWAP1 PUSH2 0x100 EXP SWAP1 DIV PUSH1 0xFF AND ISZERO ISZERO EQ PUSH2 0x985 JUMPI PUSH1 0x40 MLOAD PUSH32 0x8C379A000000000000000000000000000000000000000000000000000000000 DUP2 MSTORE PUSH1 0x4 ADD PUSH2 0x97C SWAP1 PUSH2 0x117C JUMP JUMPDEST PUSH1 0x40 MLOAD DUP1 SWAP2 SUB SWAP1 REVERT JUMPDEST TIMESTAMP PUSH1 0x0 DUP1 DUP4 DUP2 MSTORE PUSH1 0x20 ADD SWAP1 DUP2 MSTORE PUSH1 0x20 ADD PUSH1 0x0 KECCAK256 PUSH1 0x4 ADD SLOAD GT ISZERO PUSH2 0x9DD JUMPI PUSH1 0x40 MLOAD PUSH32 0x8C379A000000000000000000000000000000000000000000000000000000000 DUP2 MSTORE PUSH1 0x4 ADD PUSH2 0x9D4 SWAP1 PUSH2 0x11BC JUMP JUMPDEST PUSH1 0x40 MLOAD DUP1 SWAP2 SUB SWAP1 REVERT JUMPDEST PUSH1 0x0 DUP1 PUSH1 0x0 DUP7 DUP2 MSTORE PUSH1 0x20 ADD SWAP1 DUP2 MSTORE PUSH1 0x20 ADD PUSH1 0x0 KECCAK256 SWAP1 POP PUSH1 0x1 DUP2 PUSH1 0x5 ADD PUSH1 0x1 PUSH2 0x100 EXP DUP2 SLOAD DUP2 PUSH1 0xFF MUL NOT AND SWAP1 DUP4 ISZERO ISZERO MUL OR SWAP1 SSTORE POP DUP1 PUSH1 0x0 ADD PUSH1 0x0 SWAP1 SLOAD SWAP1 PUSH2 0x100 EXP SWAP1 DIV PUSH20 0xFFFFFFFFFFFFFFFFFFFFFFFFFFFFFFFFFFFFFFFF AND PUSH20 0xFFFFFFFFFFFFFFFFFFFFFFFFFFFFFFFFFFFFFFFF AND PUSH2 0x8FC DUP3 PUSH1 0x2 ADD SLOAD SWAP1 DUP2 ISZERO MUL SWAP1 PUSH1 0x40 MLOAD PUSH1 0x0 PUSH1 0x40 MLOAD DUP1 DUP4 SUB DUP2 DUP6 DUP9 DUP9 CALL SWAP4 POP POP POP POP ISZERO DUP1 ISZERO PUSH2 0xA7E JUMPI RETURNDATASIZE PUSH1 0x0 DUP1 RETURNDATACOPY RETURNDATASIZE PUSH1 0x0 REVERT JUMPDEST POP DUP5 PUSH32 0x989B3A845197C9AEC15F8982BBB30B5DA714050E662A7A287BB1A94C81E2E70E PUSH1 0x40 MLOAD PUSH1 0x40 MLOAD DUP1 SWAP2 SUB SWAP1 LOG2 PUSH1 0x1 SWAP4 POP POP POP POP SWAP2 SWAP1 POP JUMP JUMPDEST PUSH1 0x0 DUP1 PUSH1 0x0 DUP1 PUSH1 0x0 DUP1 PUSH1 0x0 DUP1 PUSH1 0x0 ISZERO ISZERO PUSH2 0xAD1 DUP11 PUSH2 0xBBB JUMP JUMPDEST ISZERO ISZERO EQ ISZERO PUSH2 0xB06 JUMPI PUSH1 0x0 DUP1 PUSH1 0x0 DUP1 PUSH1 0x0 DUP1 PUSH1 0x0 DUP1 DUP5 PUSH1 0x0 SHL SWAP5 POP DUP1 PUSH1 0x0 SHL SWAP1 POP SWAP8 POP SWAP8 POP SWAP8 POP SWAP8 POP SWAP8 POP SWAP8 POP SWAP8 POP SWAP8 POP PUSH2 0xBB0 JUMP JUMPDEST PUSH1 0x0 DUP1 PUSH1 0x0 DUP12 DUP2 MSTORE PUSH1 0x20 ADD SWAP1 DUP2 MSTORE PUSH1 0x20 ADD PUSH1 0x0 KECCAK256 SWAP1 POP DUP1 PUSH1 0x0 ADD PUSH1 0x0 SWAP1 SLOAD SWAP1 PUSH2 0x100 EXP SWAP1 DIV PUSH20 0xFFFFFFFFFFFFFFFFFFFFFFFFFFFFFFFFFFFFFFFF AND DUP2 PUSH1 0x1 ADD PUSH1 0x0 SWAP1 SLOAD SWAP1 PUSH2 0x100 EXP SWAP1 DIV PUSH20 0xFFFFFFFFFFFFFFFFFFFFFFFFFFFFFFFFFFFFFFFF AND DUP3 PUSH1 0x2 ADD SLOAD DUP4 PUSH1 0x3 ADD SLOAD DUP5 PUSH1 0x4 ADD SLOAD DUP6 PUSH1 0x5 ADD PUSH1 0x0 SWAP1 SLOAD SWAP1 PUSH2 0x100 EXP SWAP1 DIV PUSH1 0xFF AND DUP7 PUSH1 0x5 ADD PUSH1 0x1 SWAP1 SLOAD SWAP1 PUSH2 0x100 EXP SWAP1 DIV PUSH1 0xFF AND DUP8 PUSH1 0x6 ADD SLOAD SWAP9 POP SWAP9 POP SWAP9 POP SWAP9 POP SWAP9 POP SWAP9 POP SWAP9 POP SWAP9 POP POP JUMPDEST SWAP2 SWAP4 SWAP6 SWAP8 POP SWAP2 SWAP4 SWAP6 SWAP8 JUMP JUMPDEST PUSH1 0x0 DUP1 PUSH20 0xFFFFFFFFFFFFFFFFFFFFFFFFFFFFFFFFFFFFFFFF AND PUSH1 0x0 DUP1 DUP5 DUP2 MSTORE PUSH1 0x20 ADD SWAP1 DUP2 MSTORE PUSH1 0x20 ADD PUSH1 0x0 KECCAK256 PUSH1 0x0 ADD PUSH1 0x0 SWAP1 SLOAD SWAP1 PUSH2 0x100 EXP SWAP1 DIV PUSH20 0xFFFFFFFFFFFFFFFFFFFFFFFFFFFFFFFFFFFFFFFF AND PUSH20 0xFFFFFFFFFFFFFFFFFFFFFFFFFFFFFFFFFFFFFFFF AND EQ ISZERO SWAP1 POP SWAP2 SWAP1 POP JUMP JUMPDEST PUSH1 0x0 DUP2 CALLDATALOAD SWAP1 POP PUSH2 0xC38 DUP2 PUSH2 0x164B JUMP JUMPDEST SWAP3 SWAP2 POP POP JUMP JUMPDEST PUSH1 0x0 DUP2 CALLDATALOAD SWAP1 POP PUSH2 0xC4D DUP2 PUSH2 0x1662 JUMP JUMPDEST SWAP3 SWAP2 POP POP JUMP JUMPDEST PUSH1 0x0 DUP2 MLOAD SWAP1 POP PUSH2 0xC62 DUP2 PUSH2 0x1662 JUMP JUMPDEST SWAP3 SWAP2 POP POP JUMP JUMPDEST PUSH1 0x0 DUP2 CALLDATALOAD SWAP1 POP PUSH2 0xC77 DUP2 PUSH2 0x1679 JUMP JUMPDEST SWAP3 SWAP2 POP POP JUMP JUMPDEST PUSH1 0x0 DUP1 PUSH1 0x0 PUSH1 0x60 DUP5 DUP7 SUB SLT ISZERO PUSH2 0xC96 JUMPI PUSH2 0xC95 PUSH2 0x13DB JUMP JUMPDEST JUMPDEST PUSH1 0x0 PUSH2 0xCA4 DUP7 DUP3 DUP8 ADD PUSH2 0xC29 JUMP JUMPDEST SWAP4 POP POP PUSH1 0x20 PUSH2 0xCB5 DUP7 DUP3 DUP8 ADD PUSH2 0xC3E JUMP JUMPDEST SWAP3 POP POP PUSH1 0x40 PUSH2 0xCC6 DUP7 DUP3 DUP8 ADD PUSH2 0xC68 JUMP JUMPDEST SWAP2 POP POP SWAP3 POP SWAP3 POP SWAP3 JUMP JUMPDEST PUSH1 0x0 PUSH1 0x20 DUP3 DUP5 SUB SLT ISZERO PUSH2 0xCE6 JUMPI PUSH2 0xCE5 PUSH2 0x13DB JUMP JUMPDEST JUMPDEST PUSH1 0x0 PUSH2 0xCF4 DUP5 DUP3 DUP6 ADD PUSH2 0xC3E JUMP JUMPDEST SWAP2 POP POP SWAP3 SWAP2 POP POP JUMP JUMPDEST PUSH1 0x0 PUSH1 0x20 DUP3 DUP5 SUB SLT ISZERO PUSH2 0xD13 JUMPI PUSH2 0xD12 PUSH2 0x13DB JUMP JUMPDEST JUMPDEST PUSH1 0x0 PUSH2 0xD21 DUP5 DUP3 DUP6 ADD PUSH2 0xC53 JUMP JUMPDEST SWAP2 POP POP SWAP3 SWAP2 POP POP JUMP JUMPDEST PUSH1 0x0 DUP1 PUSH1 0x40 DUP4 DUP6 SUB SLT ISZERO PUSH2 0xD41 JUMPI PUSH2 0xD40 PUSH2 0x13DB JUMP JUMPDEST JUMPDEST PUSH1 0x0 PUSH2 0xD4F DUP6 DUP3 DUP7 ADD PUSH2 0xC3E JUMP JUMPDEST SWAP3 POP POP PUSH1 0x20 PUSH2 0xD60 DUP6 DUP3 DUP7 ADD PUSH2 0xC3E JUMP JUMPDEST SWAP2 POP POP SWAP3 POP SWAP3 SWAP1 POP JUMP JUMPDEST PUSH2 0xD7B PUSH2 0xD76 DUP3 PUSH2 0x130C JUMP JUMPDEST PUSH2 0x13A3 JUMP JUMPDEST DUP3 MSTORE POP POP JUMP JUMPDEST PUSH2 0xD8A DUP2 PUSH2 0x12FA JUMP JUMPDEST DUP3 MSTORE POP POP JUMP JUMPDEST PUSH2 0xDA1 PUSH2 0xD9C DUP3 PUSH2 0x12FA JUMP JUMPDEST PUSH2 0x1391 JUMP JUMPDEST DUP3 MSTORE POP POP JUMP JUMPDEST PUSH2 0xDB0 DUP2 PUSH2 0x131E JUMP JUMPDEST DUP3 MSTORE POP POP JUMP JUMPDEST PUSH2 0xDBF DUP2 PUSH2 0x132A JUMP JUMPDEST DUP3 MSTORE POP POP JUMP JUMPDEST PUSH2 0xDD6 PUSH2 0xDD1 DUP3 PUSH2 0x132A JUMP JUMPDEST PUSH2 0x13B5 JUMP JUMPDEST DUP3 MSTORE POP POP JUMP JUMPDEST PUSH1 0x0 PUSH2 0xDE7 DUP3 PUSH2 0x12D3 JUMP JUMPDEST PUSH2 0xDF1 DUP2 DUP6 PUSH2 0x12DE JUMP JUMPDEST SWAP4 POP PUSH2 0xE01 DUP2 DUP6 PUSH1 0x20 DUP7 ADD PUSH2 0x135E JUMP JUMPDEST DUP1 DUP5 ADD SWAP2 POP POP SWAP3 SWAP2 POP POP JUMP JUMPDEST PUSH1 0x0 PUSH2 0xE1A PUSH1 0x23 DUP4 PUSH2 0x12E9 JUMP JUMPDEST SWAP2 POP PUSH2 0xE25 DUP3 PUSH2 0x13ED JUMP JUMPDEST PUSH1 0x40 DUP3 ADD SWAP1 POP SWAP2 SWAP1 POP JUMP JUMPDEST PUSH1 0x0 PUSH2 0xE3D PUSH1 0x1A DUP4 PUSH2 0x12E9 JUMP JUMPDEST SWAP2 POP PUSH2 0xE48 DUP3 PUSH2 0x143C JUMP JUMPDEST PUSH1 0x20 DUP3 ADD SWAP1 POP SWAP2 SWAP1 POP JUMP JUMPDEST PUSH1 0x0 PUSH2 0xE60 PUSH1 0x19 DUP4 PUSH2 0x12E9 JUMP JUMPDEST SWAP2 POP PUSH2 0xE6B DUP3 PUSH2 0x1465 JUMP JUMPDEST PUSH1 0x20 DUP3 ADD SWAP1 POP SWAP2 SWAP1 POP JUMP JUMPDEST PUSH1 0x0 PUSH2 0xE83 PUSH1 0x1D DUP4 PUSH2 0x12E9 JUMP JUMPDEST SWAP2 POP PUSH2 0xE8E DUP3 PUSH2 0x148E JUMP JUMPDEST PUSH1 0x20 DUP3 ADD SWAP1 POP SWAP2 SWAP1 POP JUMP JUMPDEST PUSH1 0x0 PUSH2 0xEA6 PUSH1 0x17 DUP4 PUSH2 0x12E9 JUMP JUMPDEST SWAP2 POP PUSH2 0xEB1 DUP3 PUSH2 0x14B7 JUMP JUMPDEST PUSH1 0x20 DUP3 ADD SWAP1 POP SWAP2 SWAP1 POP JUMP JUMPDEST PUSH1 0x0 PUSH2 0xEC9 PUSH1 0x23 DUP4 PUSH2 0x12E9 JUMP JUMPDEST SWAP2 POP PUSH2 0xED4 DUP3 PUSH2 0x14E0 JUMP JUMPDEST PUSH1 0x40 DUP3 ADD SWAP1 POP SWAP2 SWAP1 POP JUMP JUMPDEST PUSH1 0x0 PUSH2 0xEEC PUSH1 0x1C DUP4 PUSH2 0x12E9 JUMP JUMPDEST SWAP2 POP PUSH2 0xEF7 DUP3 PUSH2 0x152F JUMP JUMPDEST PUSH1 0x20 DUP3 ADD SWAP1 POP SWAP2 SWAP1 POP JUMP JUMPDEST PUSH1 0x0 PUSH2 0xF0F PUSH1 0x1F DUP4 PUSH2 0x12E9 JUMP JUMPDEST SWAP2 POP PUSH2 0xF1A DUP3 PUSH2 0x1558 JUMP JUMPDEST PUSH1 0x20 DUP3 ADD SWAP1 POP SWAP2 SWAP1 POP JUMP JUMPDEST PUSH1 0x0 PUSH2 0xF32 PUSH1 0x15 DUP4 PUSH2 0x12E9 JUMP JUMPDEST SWAP2 POP PUSH2 0xF3D DUP3 PUSH2 0x1581 JUMP JUMPDEST PUSH1 0x20 DUP3 ADD SWAP1 POP SWAP2 SWAP1 POP JUMP JUMPDEST PUSH1 0x0 PUSH2 0xF55 PUSH1 0x16 DUP4 PUSH2 0x12E9 JUMP JUMPDEST SWAP2 POP PUSH2 0xF60 DUP3 PUSH2 0x15AA JUMP JUMPDEST PUSH1 0x20 DUP3 ADD SWAP1 POP SWAP2 SWAP1 POP JUMP JUMPDEST PUSH1 0x0 PUSH2 0xF78 PUSH1 0x1C DUP4 PUSH2 0x12E9 JUMP JUMPDEST SWAP2 POP PUSH2 0xF83 DUP3 PUSH2 0x15D3 JUMP JUMPDEST PUSH1 0x20 DUP3 ADD SWAP1 POP SWAP2 SWAP1 POP JUMP JUMPDEST PUSH1 0x0 PUSH2 0xF9B PUSH1 0x31 DUP4 PUSH2 0x12E9 JUMP JUMPDEST SWAP2 POP PUSH2 0xFA6 DUP3 PUSH2 0x15FC JUMP JUMPDEST PUSH1 0x40 DUP3 ADD SWAP1 POP SWAP2 SWAP1 POP JUMP JUMPDEST PUSH2 0xFBA DUP2 PUSH2 0x1354 JUMP JUMPDEST DUP3 MSTORE POP POP JUMP JUMPDEST PUSH2 0xFD1 PUSH2 0xFCC DUP3 PUSH2 0x1354 JUMP JUMPDEST PUSH2 0x13D1 JUMP JUMPDEST DUP3 MSTORE POP POP JUMP JUMPDEST PUSH1 0x0 PUSH2 0xFE3 DUP3 DUP9 PUSH2 0xD90 JUMP JUMPDEST PUSH1 0x14 DUP3 ADD SWAP2 POP PUSH2 0xFF3 DUP3 DUP8 PUSH2 0xD6A JUMP JUMPDEST PUSH1 0x14 DUP3 ADD SWAP2 POP PUSH2 0x1003 DUP3 DUP7 PUSH2 0xFC0 JUMP JUMPDEST PUSH1 0x20 DUP3 ADD SWAP2 POP PUSH2 0x1013 DUP3 DUP6 PUSH2 0xDC5 JUMP JUMPDEST PUSH1 0x20 DUP3 ADD SWAP2 POP PUSH2 0x1023 DUP3 DUP5 PUSH2 0xFC0 JUMP JUMPDEST PUSH1 0x20 DUP3 ADD SWAP2 POP DUP2 SWAP1 POP SWAP7 SWAP6 POP POP POP POP POP POP JUMP JUMPDEST PUSH1 0x0 PUSH2 0x1042 DUP3 DUP5 PUSH2 0xDC5 JUMP JUMPDEST PUSH1 0x20 DUP3 ADD SWAP2 POP DUP2 SWAP1 POP SWAP3 SWAP2 POP POP JUMP JUMPDEST PUSH1 0x0 PUSH2 0x105D DUP3 DUP5 PUSH2 0xDDC JUMP JUMPDEST SWAP2 POP DUP2 SWAP1 POP SWAP3 SWAP2 POP POP JUMP JUMPDEST PUSH1 0x0 PUSH2 0x100 DUP3 ADD SWAP1 POP PUSH2 0x107E PUSH1 0x0 DUP4 ADD DUP12 PUSH2 0xD81 JUMP JUMPDEST PUSH2 0x108B PUSH1 0x20 DUP4 ADD DUP11 PUSH2 0xD81 JUMP JUMPDEST PUSH2 0x1098 PUSH1 0x40 DUP4 ADD DUP10 PUSH2 0xFB1 JUMP JUMPDEST PUSH2 0x10A5 PUSH1 0x60 DUP4 ADD DUP9 PUSH2 0xDB6 JUMP JUMPDEST PUSH2 0x10B2 PUSH1 0x80 DUP4 ADD DUP8 PUSH2 0xFB1 JUMP JUMPDEST PUSH2 0x10BF PUSH1 0xA0 DUP4 ADD DUP7 PUSH2 0xDA7 JUMP JUMPDEST PUSH2 0x10CC PUSH1 0xC0 DUP4 ADD DUP6 PUSH2 0xDA7 JUMP JUMPDEST PUSH2 0x10D9 PUSH1 0xE0 DUP4 ADD DUP5 PUSH2 0xDB6 JUMP JUMPDEST SWAP10 SWAP9 POP POP POP POP POP POP POP POP POP JUMP JUMPDEST PUSH1 0x0 PUSH1 0x20 DUP3 ADD SWAP1 POP PUSH2 0x10FB PUSH1 0x0 DUP4 ADD DUP5 PUSH2 0xDA7 JUMP JUMPDEST SWAP3 SWAP2 POP POP JUMP JUMPDEST PUSH1 0x0 PUSH1 0x20 DUP3 ADD SWAP1 POP PUSH2 0x1116 PUSH1 0x0 DUP4 ADD DUP5 PUSH2 0xDB6 JUMP JUMPDEST SWAP3 SWAP2 POP POP JUMP JUMPDEST PUSH1 0x0 PUSH1 0x20 DUP3 ADD SWAP1 POP DUP2 DUP2 SUB PUSH1 0x0 DUP4 ADD MSTORE PUSH2 0x1135 DUP2 PUSH2 0xE0D JUMP JUMPDEST SWAP1 POP SWAP2 SWAP1 POP JUMP JUMPDEST PUSH1 0x0 PUSH1 0x20 DUP3 ADD SWAP1 POP DUP2 DUP2 SUB PUSH1 0x0 DUP4 ADD MSTORE PUSH2 0x1155 DUP2 PUSH2 0xE30 JUMP JUMPDEST SWAP1 POP SWAP2 SWAP1 POP JUMP JUMPDEST PUSH1 0x0 PUSH1 0x20 DUP3 ADD SWAP1 POP DUP2 DUP2 SUB PUSH1 0x0 DUP4 ADD MSTORE PUSH2 0x1175 DUP2 PUSH2 0xE53 JUMP JUMPDEST SWAP1 POP SWAP2 SWAP1 POP JUMP JUMPDEST PUSH1 0x0 PUSH1 0x20 DUP3 ADD SWAP1 POP DUP2 DUP2 SUB PUSH1 0x0 DUP4 ADD MSTORE PUSH2 0x1195 DUP2 PUSH2 0xE76 JUMP JUMPDEST SWAP1 POP SWAP2 SWAP1 POP JUMP JUMPDEST PUSH1 0x0 PUSH1 0x20 DUP3 ADD SWAP1 POP DUP2 DUP2 SUB PUSH1 0x0 DUP4 ADD MSTORE PUSH2 0x11B5 DUP2 PUSH2 0xE99 JUMP JUMPDEST SWAP1 POP SWAP2 SWAP1 POP JUMP JUMPDEST PUSH1 0x0 PUSH1 0x20 DUP3 ADD SWAP1 POP DUP2 DUP2 SUB PUSH1 0x0 DUP4 ADD MSTORE PUSH2 0x11D5 DUP2 PUSH2 0xEBC JUMP JUMPDEST SWAP1 POP SWAP2 SWAP1 POP JUMP JUMPDEST PUSH1 0x0 PUSH1 0x20 DUP3 ADD SWAP1 POP DUP2 DUP2 SUB PUSH1 0x0 DUP4 ADD MSTORE PUSH2 0x11F5 DUP2 PUSH2 0xEDF JUMP JUMPDEST SWAP1 POP SWAP2 SWAP1 POP JUMP JUMPDEST PUSH1 0x0 PUSH1 0x20 DUP3 ADD SWAP1 POP DUP2 DUP2 SUB PUSH1 0x0 DUP4 ADD MSTORE PUSH2 0x1215 DUP2 PUSH2 0xF02 JUMP JUMPDEST SWAP1 POP SWAP2 SWAP1 POP JUMP JUMPDEST PUSH1 0x0 PUSH1 0x20 DUP3 ADD SWAP1 POP DUP2 DUP2 SUB PUSH1 0x0 DUP4 ADD MSTORE PUSH2 0x1235 DUP2 PUSH2 0xF25 JUMP JUMPDEST SWAP1 POP SWAP2 SWAP1 POP JUMP JUMPDEST PUSH1 0x0 PUSH1 0x20 DUP3 ADD SWAP1 POP DUP2 DUP2 SUB PUSH1 0x0 DUP4 ADD MSTORE PUSH2 0x1255 DUP2 PUSH2 0xF48 JUMP JUMPDEST SWAP1 POP SWAP2 SWAP1 POP JUMP JUMPDEST PUSH1 0x0 PUSH1 0x20 DUP3 ADD SWAP1 POP DUP2 DUP2 SUB PUSH1 0x0 DUP4 ADD MSTORE PUSH2 0x1275 DUP2 PUSH2 0xF6B JUMP JUMPDEST SWAP1 POP SWAP2 SWAP1 POP JUMP JUMPDEST PUSH1 0x0 PUSH1 0x20 DUP3 ADD SWAP1 POP DUP2 DUP2 SUB PUSH1 0x0 DUP4 ADD MSTORE PUSH2 0x1295 DUP2 PUSH2 0xF8E JUMP JUMPDEST SWAP1 POP SWAP2 SWAP1 POP JUMP JUMPDEST PUSH1 0x0 PUSH1 0x60 DUP3 ADD SWAP1 POP PUSH2 0x12B1 PUSH1 0x0 DUP4 ADD DUP7 PUSH2 0xFB1 JUMP JUMPDEST PUSH2 0x12BE PUSH1 0x20 DUP4 ADD DUP6 PUSH2 0xDB6 JUMP JUMPDEST PUSH2 0x12CB PUSH1 0x40 DUP4 ADD DUP5 PUSH2 0xFB1 JUMP JUMPDEST SWAP5 SWAP4 POP POP POP POP JUMP JUMPDEST PUSH1 0x0 DUP2 MLOAD SWAP1 POP SWAP2 SWAP1 POP JUMP JUMPDEST PUSH1 0x0 DUP2 SWAP1 POP SWAP3 SWAP2 POP POP JUMP JUMPDEST PUSH1 0x0 DUP3 DUP3 MSTORE PUSH1 0x20 DUP3 ADD SWAP1 POP SWAP3 SWAP2 POP POP JUMP JUMPDEST PUSH1 0x0 PUSH2 0x1305 DUP3 PUSH2 0x1334 JUMP JUMPDEST SWAP1 POP SWAP2 SWAP1 POP JUMP JUMPDEST PUSH1 0x0 PUSH2 0x1317 DUP3 PUSH2 0x1334 JUMP JUMPDEST SWAP1 POP SWAP2 SWAP1 POP JUMP JUMPDEST PUSH1 0x0 DUP2 ISZERO ISZERO SWAP1 POP SWAP2 SWAP1 POP JUMP JUMPDEST PUSH1 0x0 DUP2 SWAP1 POP SWAP2 SWAP1 POP JUMP JUMPDEST PUSH1 0x0 PUSH20 0xFFFFFFFFFFFFFFFFFFFFFFFFFFFFFFFFFFFFFFFF DUP3 AND SWAP1 POP SWAP2 SWAP1 POP JUMP JUMPDEST PUSH1 0x0 DUP2 SWAP1 POP SWAP2 SWAP1 POP JUMP JUMPDEST PUSH1 0x0 JUMPDEST DUP4 DUP2 LT ISZERO PUSH2 0x137C JUMPI DUP1 DUP3 ADD MLOAD DUP2 DUP5 ADD MSTORE PUSH1 0x20 DUP2 ADD SWAP1 POP PUSH2 0x1361 JUMP JUMPDEST DUP4 DUP2 GT ISZERO PUSH2 0x138B JUMPI PUSH1 0x0 DUP5 DUP5 ADD MSTORE JUMPDEST POP POP POP POP JUMP JUMPDEST PUSH1 0x0 PUSH2 0x139C DUP3 PUSH2 0x13BF JUMP JUMPDEST SWAP1 POP SWAP2 SWAP1 POP JUMP JUMPDEST PUSH1 0x0 PUSH2 0x13AE DUP3 PUSH2 0x13BF JUMP JUMPDEST SWAP1 POP SWAP2 SWAP1 POP JUMP JUMPDEST PUSH1 0x0 DUP2 SWAP1 POP SWAP2 SWAP1 POP JUMP JUMPDEST PUSH1 0x0 PUSH2 0x13CA DUP3 PUSH2 0x13E0 JUMP JUMPDEST SWAP1 POP SWAP2 SWAP1 POP JUMP JUMPDEST PUSH1 0x0 DUP2 SWAP1 POP SWAP2 SWAP1 POP JUMP JUMPDEST PUSH1 0x0 DUP1 REVERT JUMPDEST PUSH1 0x0 DUP2 PUSH1 0x60 SHL SWAP1 POP SWAP2 SWAP1 POP JUMP JUMPDEST PUSH32 0x74696D656C6F636B2074696D65206D75737420626520696E2074686520667574 PUSH1 0x0 DUP3 ADD MSTORE PUSH32 0x7572650000000000000000000000000000000000000000000000000000000000 PUSH1 0x20 DUP3 ADD MSTORE POP JUMP JUMPDEST PUSH32 0x776974686472617761626C653A206E6F74207265636569766572000000000000 PUSH1 0x0 DUP3 ADD MSTORE POP JUMP JUMPDEST PUSH32 0x636F6E7472616374496420646F6573206E6F7420657869737400000000000000 PUSH1 0x0 DUP3 ADD MSTORE POP JUMP JUMPDEST PUSH32 0x726566756E6461626C653A20616C72656164792077697468647261776E000000 PUSH1 0x0 DUP3 ADD MSTORE POP JUMP JUMPDEST PUSH32 0x436F6E747261637420616C726561647920657869737473000000000000000000 PUSH1 0x0 DUP3 ADD MSTORE POP JUMP JUMPDEST PUSH32 0x726566756E6461626C653A2074696D656C6F636B206E6F742079657420706173 PUSH1 0x0 DUP3 ADD MSTORE PUSH32 0x7365640000000000000000000000000000000000000000000000000000000000 PUSH1 0x20 DUP3 ADD MSTORE POP JUMP JUMPDEST PUSH32 0x726566756E6461626C653A20616C726561647920726566756E64656400000000 PUSH1 0x0 DUP3 ADD MSTORE POP JUMP JUMPDEST PUSH32 0x776974686472617761626C653A20616C72656164792077697468647261776E00 PUSH1 0x0 DUP3 ADD MSTORE POP JUMP JUMPDEST PUSH32 0x6D73672E76616C7565206D757374206265203E20300000000000000000000000 PUSH1 0x0 DUP3 ADD MSTORE POP JUMP JUMPDEST PUSH32 0x726566756E6461626C653A206E6F742073656E64657200000000000000000000 PUSH1 0x0 DUP3 ADD MSTORE POP JUMP JUMPDEST PUSH32 0x686173686C6F636B206861736820646F6573206E6F74206D6174636800000000 PUSH1 0x0 DUP3 ADD MSTORE POP JUMP JUMPDEST PUSH32 0x776974686472617761626C653A2074696D656C6F636B2074696D65206D757374 PUSH1 0x0 DUP3 ADD MSTORE PUSH32 0x20626520696E2074686520667574757265000000000000000000000000000000 PUSH1 0x20 DUP3 ADD MSTORE POP JUMP JUMPDEST PUSH2 0x1654 DUP2 PUSH2 0x130C JUMP JUMPDEST DUP2 EQ PUSH2 0x165F JUMPI PUSH1 0x0 DUP1 REVERT JUMPDEST POP JUMP JUMPDEST PUSH2 0x166B DUP2 PUSH2 0x132A JUMP JUMPDEST DUP2 EQ PUSH2 0x1676 JUMPI PUSH1 0x0 DUP1 REVERT JUMPDEST POP JUMP JUMPDEST PUSH2 0x1682 DUP2 PUSH2 0x1354 JUMP JUMPDEST DUP2 EQ PUSH2 0x168D JUMPI PUSH1 0x0 DUP1 REVERT JUMPDEST POP JUMP INVALID LOG2 PUSH5 0x6970667358 0x22 SLT KECCAK256 0xBF EXTCODESIZE 0xE1 PUSH22 0x9F751D1D15A768E4FA07FC4CCA15BC970647DEAF5754 MSIZE PUSH27 0x336BDDC164736F6C63430008050033000000000000000000000000 "},"gasEstimates":{"creation":{"codeDepositCost":"1166000","executionCost":"1214","totalCost":"1167214"},"external":{"getContract(bytes32)":"infinite","newContract(address,bytes32,uint256)":"infinite","refund(bytes32)":"infinite","withdraw(bytes32,bytes32)":"infinite"},"internal":{"haveContract(bytes32)":"2275"}},"methodIdentifiers":{"getContract(bytes32)":"e16c7d98","newContract(address,bytes32,uint256)":"335ef5bd","refund(bytes32)":"7249fbb6","withdraw(bytes32,bytes32)":"63615149"}},"storageLayout":{"storage":[{"astId":227,"contract":"HashedTimelock.sol:HashedTimelock","label":"contracts","offset":0,"slot":"0","type":"t_mapping(t_bytes32,t_struct(LockContract)74_storage)"}],"types":{"t_address_payable":{"encoding":"inplace","label":"address payable","numberOfBytes":"20"},"t_bool":{"encoding":"inplace","label":"bool","numberOfBytes":"1"},"t_bytes32":{"encoding":"inplace","label":"bytes32","numberOfBytes":"32"},"t_mapping(t_bytes32,t_struct(LockContract)74_storage)":{"encoding":"mapping","key":"t_bytes32","label":"mapping(bytes32 => struct HashedTimelock.LockContract)","numberOfBytes":"32","value":"t_struct(LockContract)74_storage"},"t_struct(LockContract)74_storage":{"encoding":"inplace","label":"struct HashedTimelock.LockContract","members":[{"astId":59,"contract":"HashedTimelock.sol:HashedTimelock","label":"sender","offset":0,"slot":"0","type":"t_address_payable"},{"astId":61,"contract":"HashedTimelock.sol:HashedTimelock","label":"receiver","offset":0,"slot":"1","type":"t_address_payable"},{"astId":63,"contract":"HashedTimelock.sol:HashedTimelock","label":"amount","offset":0,"slot":"2","type":"t_uint256"},{"astId":65,"contract":"HashedTimelock.sol:HashedTimelock","label":"hashlock","offset":0,"slot":"3","type":"t_bytes32"},{"astId":67,"contract":"HashedTimelock.sol:HashedTimelock","label":"timelock","offset":0,"slot":"4","type":"t_uint256"},{"astId":69,"contract":"HashedTimelock.sol:HashedTimelock","label":"withdrawn","offset":0,"slot":"5","type":"t_bool"},{"astId":71,"contract":"HashedTimelock.sol:HashedTimelock","label":"refunded","offset":1,"slot":"5","type":"t_bool"},{"astId":73,"contract":"HashedTimelock.sol:HashedTimelock","label":"preimage","offset":0,"slot":"6","type":"t_bytes32"}],"numberOfBytes":"224"},"t_uint256":{"encoding":"inplace","label":"uint256","numberOfBytes":"32"}}},"userdoc":{"kind":"user","methods":{},"version":1}}